{
  "contractName": "Creator",
  "abi": [
    {
      "anonymous": false,
      "inputs": [],
      "name": "NewCreator",
      "type": "event"
    },
    {
      "anonymous": false,
      "inputs": [],
      "name": "WelcomeBackCreator",
      "type": "event"
    },
    {
      "constant": true,
      "inputs": [],
      "name": "numCreators",
      "outputs": [
        {
          "internalType": "uint256",
          "name": "",
          "type": "uint256"
        }
      ],
      "payable": false,
      "stateMutability": "view",
      "type": "function"
    },
    {
      "constant": false,
      "inputs": [],
      "name": "newCreatorSignup",
      "outputs": [],
      "payable": false,
      "stateMutability": "nonpayable",
      "type": "function"
    }
  ],
  "bytecode": "0x608060405234801561001057600080fd5b506102c6806100206000396000f3fe608060405234801561001057600080fd5b50600436106100365760003560e01c80635df741431461003b578063f9df985114610045575b600080fd5b610043610063565b005b61004d610183565b60405161005a919061024d565b60405180910390f35b600160003373ffffffffffffffffffffffffffffffffffffffff1673ffffffffffffffffffffffffffffffffffffffff16815260200190815260200160002060009054906101000a900460ff16156100e6577fad569f5f5522837c649404dd673537aa865e803920dd7b1802f2a522bb0f9ad760405160405180910390a1610181565b60018060003373ffffffffffffffffffffffffffffffffffffffff1673ffffffffffffffffffffffffffffffffffffffff16815260200190815260200160002060006101000a81548160ff021916908315150217905550610153600160005461018990919063ffffffff16565b507f292813b9c444d1e805bb3e342ff6631d3ef0b93de23db3f4462dedfca7ef8d9260405160405180910390a15b565b60005481565b6000808284019050838110156101d4576040517f08c379a00000000000000000000000000000000000000000000000000000000081526004016101cb9061022d565b60405180910390fd5b8091505092915050565b60006101eb601b83610268565b91507f536166654d6174683a206164646974696f6e206f766572666c6f7700000000006000830152602082019050919050565b61022781610279565b82525050565b60006020820190508181036000830152610246816101de565b9050919050565b6000602082019050610262600083018461021e565b92915050565b600082825260208201905092915050565b600081905091905056fea365627a7a72315820203017d45911cf82d36a06ca08655a091bd6711cdf5bd75a57de0afa56aea0e86c6578706572696d656e74616cf564736f6c63430005100040",
  "source": "pragma solidity ^0.5.0;\r\npragma experimental ABIEncoderV2;\r\n\r\nimport './SafeMath.sol';\r\n\r\ncontract Patron {\r\n\r\n    using SafeMath for uint;\r\n\r\n    // Total patrons on platform\r\n    uint public numPatrons;\r\n\r\n    // Mapping to keep track of new patrons\r\n    mapping (address => bool) alreadyRegisteredPatron;\r\n\r\n    // Mapping to get all the Creator ID's patron has subscribed to\r\n    mapping (address => address[]) Subscriptions;                                   // See implementation of add vs uint\r\n\r\n    // Event flagging a new patron\r\n    event NewPatron();\r\n    // Event for welcome back\r\n    event WelcomeBackPatron();\r\n\r\n    modifier isPatronRegistered () {\r\n        require(alreadyRegisteredPatron[msg.sender], \"User not registered!\");\r\n        _;\r\n    }\r\n\r\n    // Function to create a new patron from public address and return success\r\n    function newPatronSignup () public {\r\n        if (alreadyRegisteredPatron[msg.sender]) {\r\n            emit WelcomeBackPatron();\r\n        }\r\n        else {\r\n            alreadyRegisteredPatron[msg.sender] = true;\r\n            numPatrons.add(1);\r\n            emit NewPatron();\r\n        }\r\n    }\r\n\r\n    // Function to get total number of creators a patron has subscribed to\r\n    function getSubscriptionCount() public view isPatronRegistered returns (uint) {\r\n        return Subscriptions[msg.sender].length;\r\n    }\r\n\r\n    // Function to get all creators a patron has subscribed to\r\n    function getSubscriptions() public view isPatronRegistered returns (address[] memory) {\r\n        return Subscriptions[msg.sender];\r\n    }\r\n}\r\n\r\ncontract Creator {\r\n\r\n    using SafeMath for uint;\r\n\r\n    // Structure to store data of a creator\r\n    struct CreatorDatastore {\r\n        string imageHash;\r\n        string contentHash;\r\n    }\r\n\r\n    // Total creators on platform\r\n    uint public numCreators;\r\n\r\n    // Mapping to keep track of new creators\r\n    mapping (address => bool) alreadyRegisteredCreator;\r\n\r\n    // Mapping to get data of a creator\r\n    mapping (address => CreatorDatastore) CreatorData;\r\n\r\n    // Event flagging a new creator\r\n    event NewCreator();\r\n    // Event for welcome back\r\n    event WelcomeBackCreator();\r\n\r\n    modifier isCreatorRegistered () {\r\n        require(alreadyRegisteredCreator[msg.sender], \"Creator not registered!\");\r\n        _;\r\n    }\r\n\r\n    // Function to create a new creator from public address and return success\r\n    function newCreatorSignup () public {\r\n        if (alreadyRegisteredCreator[msg.sender]) {\r\n            emit WelcomeBackCreator();\r\n        }\r\n        else {\r\n            alreadyRegisteredCreator[msg.sender] = true;\r\n            numCreators.add(1);\r\n            emit NewCreator();\r\n        }\r\n    }\r\n}",
  "sourcePath": "C:\\Users\\Shubham Bhardwaj\\Desktop\\pet-shop\\contracts\\EthreonBase.sol",
  "compiler": {
    "name": "solc",
    "version": "0.5.16+commit.9c3226ce.Emscripten.clang"
  },
  "schemaVersion": "3.2.0",
  "updatedAt": "2020-06-22T06:38:54.460Z",
  "devdoc": {
    "methods": {}
  },
  "userdoc": {
    "methods": {}
  }
}