{
  "contractName": "Ethreon",
  "abi": [
    {
      "anonymous": false,
      "inputs": [],
      "name": "AlreadySubscribed",
      "type": "event"
    },
    {
      "anonymous": false,
      "inputs": [],
      "name": "ContentAdded",
      "type": "event"
    },
    {
      "anonymous": false,
      "inputs": [],
      "name": "ImageAdded",
      "type": "event"
    },
    {
      "anonymous": false,
      "inputs": [],
      "name": "NewCreator",
      "type": "event"
    },
    {
      "anonymous": false,
      "inputs": [],
      "name": "NewPatron",
      "type": "event"
    },
    {
      "anonymous": false,
      "inputs": [
        {
          "indexed": false,
          "internalType": "address",
          "name": "_creator",
          "type": "address"
        }
      ],
      "name": "NewSubscription",
      "type": "event"
    },
    {
      "anonymous": false,
      "inputs": [],
      "name": "WelcomeBackCreator",
      "type": "event"
    },
    {
      "anonymous": false,
      "inputs": [],
      "name": "WelcomeBackPatron",
      "type": "event"
    },
    {
      "constant": true,
      "inputs": [
        {
          "internalType": "uint256",
          "name": "",
          "type": "uint256"
        }
      ],
      "name": "allCreators",
      "outputs": [
        {
          "internalType": "address",
          "name": "",
          "type": "address"
        }
      ],
      "payable": false,
      "stateMutability": "view",
      "type": "function"
    },
    {
      "constant": true,
      "inputs": [],
      "name": "getSubscriptionCount",
      "outputs": [
        {
          "internalType": "uint256",
          "name": "",
          "type": "uint256"
        }
      ],
      "payable": false,
      "stateMutability": "view",
      "type": "function"
    },
    {
      "constant": true,
      "inputs": [],
      "name": "getSubscriptions",
      "outputs": [
        {
          "internalType": "address[]",
          "name": "",
          "type": "address[]"
        }
      ],
      "payable": false,
      "stateMutability": "view",
      "type": "function"
    },
    {
      "constant": false,
      "inputs": [],
      "name": "newCreatorSignup",
      "outputs": [],
      "payable": false,
      "stateMutability": "nonpayable",
      "type": "function"
    },
    {
      "constant": false,
      "inputs": [],
      "name": "newPatronSignup",
      "outputs": [],
      "payable": false,
      "stateMutability": "nonpayable",
      "type": "function"
    },
    {
      "constant": true,
      "inputs": [],
      "name": "numCreators",
      "outputs": [
        {
          "internalType": "uint256",
          "name": "",
          "type": "uint256"
        }
      ],
      "payable": false,
      "stateMutability": "view",
      "type": "function"
    },
    {
      "constant": true,
      "inputs": [],
      "name": "numPatrons",
      "outputs": [
        {
          "internalType": "uint256",
          "name": "",
          "type": "uint256"
        }
      ],
      "payable": false,
      "stateMutability": "view",
      "type": "function"
    },
    {
      "constant": false,
      "inputs": [
        {
          "internalType": "address",
          "name": "_creator",
          "type": "address"
        }
      ],
      "name": "newSubscription",
      "outputs": [],
      "payable": false,
      "stateMutability": "nonpayable",
      "type": "function"
    },
    {
      "constant": false,
      "inputs": [
        {
          "internalType": "string",
          "name": "_imageHash",
          "type": "string"
        }
      ],
      "name": "addCreatorImage",
      "outputs": [],
      "payable": false,
      "stateMutability": "nonpayable",
      "type": "function"
    },
    {
      "constant": false,
      "inputs": [
        {
          "internalType": "string",
          "name": "_contentHash",
          "type": "string"
        }
      ],
      "name": "addCreatorContent",
      "outputs": [],
      "payable": false,
      "stateMutability": "nonpayable",
      "type": "function"
    },
    {
      "constant": true,
      "inputs": [
        {
          "internalType": "address",
          "name": "_creator",
          "type": "address"
        }
      ],
      "name": "getContent",
      "outputs": [
        {
          "internalType": "string",
          "name": "",
          "type": "string"
        }
      ],
      "payable": false,
      "stateMutability": "view",
      "type": "function"
    }
  ],
  "bytecode": "0x608060405234801561001057600080fd5b506117e0806100206000396000f3fe608060405234801561001057600080fd5b50600436106100a95760003560e01c80636a9eac6e116100715780636a9eac6e1461012e578063888e5d9e1461013857806389b1349a14610168578063b30ab34914610184578063eb049dc9146101b4578063f9df9851146101d0576100a9565b80632316dc5c146100ae5780633b47a9ac146100cc57806349f7e2ce146100ea5780635df74143146101065780636641997014610110575b600080fd5b6100b66101ee565b6040516100c39190611617565b60405180910390f35b6100d46101f4565b6040516100e19190611533565b60405180910390f35b61010460048036036100ff9190810190611292565b61034b565b005b61010e6104a1565b005b61011861062d565b6040516101259190611617565b60405180910390f35b610136610703565b005b610152600480360361014d91908101906112d3565b610828565b60405161015f9190611518565b60405180910390f35b610182600480360361017d9190810190611292565b610864565b005b61019e60048036036101999190810190611269565b6109ba565b6040516101ab9190611555565b60405180910390f35b6101ce60048036036101c99190810190611269565b610cfd565b005b6101d86110eb565b6040516101e59190611617565b60405180910390f35b60005481565b6060600160003373ffffffffffffffffffffffffffffffffffffffff1673ffffffffffffffffffffffffffffffffffffffff16815260200190815260200160002060009054906101000a900460ff16610282576040517f08c379a000000000000000000000000000000000000000000000000000000000815260040161027990611577565b60405180910390fd5b600260003373ffffffffffffffffffffffffffffffffffffffff1673ffffffffffffffffffffffffffffffffffffffff16815260200190815260200160002080548060200260200160405190810160405280929190818152602001828054801561034157602002820191906000526020600020905b8160009054906101000a900473ffffffffffffffffffffffffffffffffffffffff1673ffffffffffffffffffffffffffffffffffffffff16815260200190600101908083116102f7575b5050505050905090565b600560003373ffffffffffffffffffffffffffffffffffffffff1673ffffffffffffffffffffffffffffffffffffffff16815260200190815260200160002060009054906101000a900460ff166103d7576040517f08c379a00000000000000000000000000000000000000000000000000000000081526004016103ce906115d7565b60405180910390fd5b600081511161041b576040517f08c379a0000000000000000000000000000000000000000000000000000000008152600401610412906115f7565b60405180910390fd5b80600660003373ffffffffffffffffffffffffffffffffffffffff1673ffffffffffffffffffffffffffffffffffffffff1681526020019081526020016000206001019080519060200190610471929190611146565b507f099cd507ce053de70a3a9ab29d62c2bcecd94b68c75716bbdbf6e8791ed02ef560405160405180910390a150565b600560003373ffffffffffffffffffffffffffffffffffffffff1673ffffffffffffffffffffffffffffffffffffffff16815260200190815260200160002060009054906101000a900460ff1615610524577fad569f5f5522837c649404dd673537aa865e803920dd7b1802f2a522bb0f9ad760405160405180910390a161062b565b6001600560003373ffffffffffffffffffffffffffffffffffffffff1673ffffffffffffffffffffffffffffffffffffffff16815260200190815260200160002060006101000a81548160ff02191690831515021790555060043390806001815401808255809150509060018203906000526020600020016000909192909190916101000a81548173ffffffffffffffffffffffffffffffffffffffff021916908373ffffffffffffffffffffffffffffffffffffffff160217905550506105f860016003546110f190919063ffffffff16565b6003819055507f292813b9c444d1e805bb3e342ff6631d3ef0b93de23db3f4462dedfca7ef8d9260405160405180910390a15b565b6000600160003373ffffffffffffffffffffffffffffffffffffffff1673ffffffffffffffffffffffffffffffffffffffff16815260200190815260200160002060009054906101000a900460ff166106bb576040517f08c379a00000000000000000000000000000000000000000000000000000000081526004016106b290611577565b60405180910390fd5b600260003373ffffffffffffffffffffffffffffffffffffffff1673ffffffffffffffffffffffffffffffffffffffff16815260200190815260200160002080549050905090565b600160003373ffffffffffffffffffffffffffffffffffffffff1673ffffffffffffffffffffffffffffffffffffffff16815260200190815260200160002060009054906101000a900460ff1615610786577f27fa8c9a0a68f2eac1e0efb2014ab68f2abe15c7c91c75bee02fa657c3ead0ce60405160405180910390a1610826565b60018060003373ffffffffffffffffffffffffffffffffffffffff1673ffffffffffffffffffffffffffffffffffffffff16815260200190815260200160002060006101000a81548160ff0219169083151502179055506107f360016000546110f190919063ffffffff16565b6000819055507f4186843bf7674376f6b27b4cd58a19a7d3c5dd840a916a230a5621bbc65883be60405160405180910390a15b565b6004818154811061083557fe5b906000526020600020016000915054906101000a900473ffffffffffffffffffffffffffffffffffffffff1681565b600560003373ffffffffffffffffffffffffffffffffffffffff1673ffffffffffffffffffffffffffffffffffffffff16815260200190815260200160002060009054906101000a900460ff166108f0576040517f08c379a00000000000000000000000000000000000000000000000000000000081526004016108e7906115d7565b60405180910390fd5b6000815111610934576040517f08c379a000000000000000000000000000000000000000000000000000000000815260040161092b906115f7565b60405180910390fd5b80600660003373ffffffffffffffffffffffffffffffffffffffff1673ffffffffffffffffffffffffffffffffffffffff168152602001908152602001600020600001908051906020019061098a929190611146565b507f943b07e3b59cf94b41d4a12b629be46611f5e27ff763cc03d58cdfdb3a739d4d60405160405180910390a150565b6060600160003373ffffffffffffffffffffffffffffffffffffffff1673ffffffffffffffffffffffffffffffffffffffff16815260200190815260200160002060009054906101000a900460ff16610a48576040517f08c379a0000000000000000000000000000000000000000000000000000000008152600401610a3f90611577565b60405180910390fd5b600560008373ffffffffffffffffffffffffffffffffffffffff1673ffffffffffffffffffffffffffffffffffffffff16815260200190815260200160002060009054906101000a900460ff16610ad4576040517f08c379a0000000000000000000000000000000000000000000000000000000008152600401610acb906115b7565b60405180910390fd5b6060600760008473ffffffffffffffffffffffffffffffffffffffff1673ffffffffffffffffffffffffffffffffffffffff168152602001908152602001600020805480602002602001604051908101604052809291908181526020018280548015610b9557602002820191906000526020600020905b8160009054906101000a900473ffffffffffffffffffffffffffffffffffffffff1673ffffffffffffffffffffffffffffffffffffffff1681526020019060010190808311610b4b575b5050505050905060008090505b8151811015610ce3573373ffffffffffffffffffffffffffffffffffffffff16828281518110610bce57fe5b602002602001015173ffffffffffffffffffffffffffffffffffffffff161415610cd657600660008573ffffffffffffffffffffffffffffffffffffffff1673ffffffffffffffffffffffffffffffffffffffff1681526020019081526020016000206001018054600181600116156101000203166002900480601f016020809104026020016040519081016040528092919081815260200182805460018160011615610100020316600290048015610cc85780601f10610c9d57610100808354040283529160200191610cc8565b820191906000526020600020905b815481529060010190602001808311610cab57829003601f168201915b505050505092505050610cf8565b8080600101915050610ba2565b50604051806020016040528060008152509150505b919050565b600160003373ffffffffffffffffffffffffffffffffffffffff1673ffffffffffffffffffffffffffffffffffffffff16815260200190815260200160002060009054906101000a900460ff16610d89576040517f08c379a0000000000000000000000000000000000000000000000000000000008152600401610d8090611577565b60405180910390fd5b600560008273ffffffffffffffffffffffffffffffffffffffff1673ffffffffffffffffffffffffffffffffffffffff16815260200190815260200160002060009054906101000a900460ff16610e15576040517f08c379a0000000000000000000000000000000000000000000000000000000008152600401610e0c906115b7565b60405180910390fd5b600860003373ffffffffffffffffffffffffffffffffffffffff1673ffffffffffffffffffffffffffffffffffffffff16815260200190815260200160002060008273ffffffffffffffffffffffffffffffffffffffff1673ffffffffffffffffffffffffffffffffffffffff16815260200190815260200160002060009054906101000a900460ff1615610ed5577f5fd8a1328cf54e260cc8a81e8482879cbb5cab38a3c5c7499ea7641172d7618f60405160405180910390a16110e8565b600760008273ffffffffffffffffffffffffffffffffffffffff1673ffffffffffffffffffffffffffffffffffffffff1681526020019081526020016000203390806001815401808255809150509060018203906000526020600020016000909192909190916101000a81548173ffffffffffffffffffffffffffffffffffffffff021916908373ffffffffffffffffffffffffffffffffffffffff16021790555050600260003373ffffffffffffffffffffffffffffffffffffffff1673ffffffffffffffffffffffffffffffffffffffff1681526020019081526020016000208190806001815401808255809150509060018203906000526020600020016000909192909190916101000a81548173ffffffffffffffffffffffffffffffffffffffff021916908373ffffffffffffffffffffffffffffffffffffffff160217905550506001600860003373ffffffffffffffffffffffffffffffffffffffff1673ffffffffffffffffffffffffffffffffffffffff16815260200190815260200160002060008373ffffffffffffffffffffffffffffffffffffffff1673ffffffffffffffffffffffffffffffffffffffff16815260200190815260200160002060006101000a81548160ff0219169083151502179055507f5bc7d13291cd02f7d213fdf7fa71028394f2b5d578f6e5baf2eb2e05dbb23f4a816040516110df9190611518565b60405180910390a15b50565b60035481565b60008082840190508381101561113c576040517f08c379a000000000000000000000000000000000000000000000000000000000815260040161113390611597565b60405180910390fd5b8091505092915050565b828054600181600116156101000203166002900490600052602060002090601f016020900481019282601f1061118757805160ff19168380011785556111b5565b828001600101855582156111b5579182015b828111156111b4578251825591602001919060010190611199565b5b5090506111c291906111c6565b5090565b6111e891905b808211156111e45760008160009055506001016111cc565b5090565b90565b6000813590506111fa8161176f565b92915050565b600082601f83011261121157600080fd5b813561122461121f8261165f565b611632565b9150808252602083016020830185838301111561124057600080fd5b61124b83828461171c565b50505092915050565b60008135905061126381611786565b92915050565b60006020828403121561127b57600080fd5b6000611289848285016111eb565b91505092915050565b6000602082840312156112a457600080fd5b600082013567ffffffffffffffff8111156112be57600080fd5b6112ca84828501611200565b91505092915050565b6000602082840312156112e557600080fd5b60006112f384828501611254565b91505092915050565b60006113088383611314565b60208301905092915050565b61131d816116e0565b82525050565b61132c816116e0565b82525050565b600061133d8261169b565b61134781856116be565b93506113528361168b565b8060005b8381101561138357815161136a88826112fc565b9750611375836116b1565b925050600181019050611356565b5085935050505092915050565b600061139b826116a6565b6113a581856116cf565b93506113b581856020860161172b565b6113be8161175e565b840191505092915050565b60006113d66014836116cf565b91507f55736572206e6f742072656769737465726564210000000000000000000000006000830152602082019050919050565b6000611416601b836116cf565b91507f536166654d6174683a206164646974696f6e206f766572666c6f7700000000006000830152602082019050919050565b60006114566019836116cf565b91507f4e6f74206120726567697374657265642063726561746f7221000000000000006000830152602082019050919050565b60006114966017836116cf565b91507f43726561746f72206e6f742072656769737465726564210000000000000000006000830152602082019050919050565b60006114d66017836116cf565b91507f4e6f7420612076616c696420696d6167652068617368210000000000000000006000830152602082019050919050565b61151281611712565b82525050565b600060208201905061152d6000830184611323565b92915050565b6000602082019050818103600083015261154d8184611332565b905092915050565b6000602082019050818103600083015261156f8184611390565b905092915050565b60006020820190508181036000830152611590816113c9565b9050919050565b600060208201905081810360008301526115b081611409565b9050919050565b600060208201905081810360008301526115d081611449565b9050919050565b600060208201905081810360008301526115f081611489565b9050919050565b60006020820190508181036000830152611610816114c9565b9050919050565b600060208201905061162c6000830184611509565b92915050565b6000604051905081810181811067ffffffffffffffff8211171561165557600080fd5b8060405250919050565b600067ffffffffffffffff82111561167657600080fd5b601f19601f8301169050602081019050919050565b6000819050602082019050919050565b600081519050919050565b600081519050919050565b6000602082019050919050565b600082825260208201905092915050565b600082825260208201905092915050565b60006116eb826116f2565b9050919050565b600073ffffffffffffffffffffffffffffffffffffffff82169050919050565b6000819050919050565b82818337600083830152505050565b60005b8381101561174957808201518184015260208101905061172e565b83811115611758576000848401525b50505050565b6000601f19601f8301169050919050565b611778816116e0565b811461178357600080fd5b50565b61178f81611712565b811461179a57600080fd5b5056fea365627a7a72315820f2f32bc5cefb94673766b5cf97112227eb0ccd448f700439d055c7b83e8cf2d06c6578706572696d656e74616cf564736f6c63430005100040",
  "source": "pragma solidity ^0.5.0;\r\npragma experimental ABIEncoderV2;\r\n\r\nimport './SafeMath.sol';\r\nimport './EthreonBase.sol';\r\n\r\ncontract Ethreon is Patron, Creator {\r\n\r\n    // Structure to store subscribers and their end date\r\n    // struct SubscribersData {\r\n    //     address patronAddress;\r\n    //     uint endSubscription;\r\n    // }\r\n\r\n    // Mapping to get all the patrons subscribed to creator\r\n    // mapping (address => SubscribersData[]) Subscribers;\r\n    mapping (address => address[]) Subscribers;\r\n    // Mappings to prevent double subscription\r\n    mapping(address => mapping(address => bool)) isCreatorSubscribed;       // For all patrons\r\n    // mapping(address => mapping(address => bool)) isUserSubscribed;          // For all creators\r\n\r\n    // Event flagging new subscription to highlight creator\r\n    event NewSubscription(address _creator);\r\n    // Event to flag already existing subscription\r\n    event AlreadySubscribed();\r\n    // Event flagging addition of creator image\r\n    event ImageAdded();\r\n    // Event flagging addition of content by creator\r\n    event ContentAdded();\r\n\r\n    // Function for patron to subscribe to new creator\r\n    function newSubscription(address _creator) public isPatronRegistered {\r\n        require(alreadyRegisteredCreator[_creator], \"Not a registered creator!\");\r\n        if (isCreatorSubscribed[msg.sender][_creator]) {\r\n            emit AlreadySubscribed();\r\n        }\r\n        else {\r\n            Subscribers[_creator].push(msg.sender);             //SubscribersData(msg.sender, now + 30 days));\r\n            Subscriptions[msg.sender].push(_creator);\r\n            isCreatorSubscribed[msg.sender][_creator] = true;\r\n            emit NewSubscription(_creator);\r\n        }\r\n    }\r\n\r\n    // Function to add image for the creator\r\n    function addCreatorImage(string memory _imageHash) public isCreatorRegistered {\r\n        require(bytes(_imageHash).length > 0, \"Not a valid image hash!\");\r\n        CreatorData[msg.sender].imageHash = _imageHash;\r\n        emit ImageAdded();\r\n    }\r\n\r\n    // Function to add content by the creator\r\n    function addCreatorContent(string memory _contentHash) public isCreatorRegistered {\r\n        require(bytes(_contentHash).length > 0, \"Not a valid image hash!\");\r\n        CreatorData[msg.sender].contentHash = _contentHash;\r\n        emit ContentAdded();\r\n    }\r\n\r\n    // Function to return string of content hash to registered patron\r\n    function getContent(address _creator) public view isPatronRegistered returns (string memory ) {\r\n        require(alreadyRegisteredCreator[_creator], \"Not a registered creator!\");\r\n        // require(Subscribers[_creator].isValue, \"No subscribers of this creator yet!\");\r\n        address[] memory users = Subscribers[_creator];\r\n        for (uint i = 0; i < users.length; i++) {\r\n            if (users[i] == msg.sender) {\r\n                return CreatorData[_creator].contentHash;\r\n                //if (users[i].endSubscription > now) {\r\n                //    return CreatorData[_creator].contentHash;\r\n                //}\r\n            }\r\n        }\r\n        return \"\";                // Should never reach here ideally\r\n    }\r\n}",
  "sourcePath": "C:\\Users\\Shubham Bhardwaj\\Desktop\\ChainRunner\\pet-shop\\contracts\\Ethreon.sol",
  "compiler": {
    "name": "solc",
    "version": "0.5.16+commit.9c3226ce.Emscripten.clang"
  },
  "schemaVersion": "3.2.0",
  "updatedAt": "2020-06-23T19:17:57.201Z",
  "networkType": "ethereum",
  "devdoc": {
    "methods": {}
  },
  "userdoc": {
    "methods": {}
  }
}