{
  "contractName": "Ethreon123",
  "abi": [
    {
      "anonymous": false,
      "inputs": [
        {
          "indexed": false,
          "internalType": "uint256",
          "name": "id",
          "type": "uint256"
        },
        {
          "indexed": false,
          "internalType": "string",
          "name": "name",
          "type": "string"
        }
      ],
      "name": "NewCreator",
      "type": "event"
    },
    {
      "anonymous": false,
      "inputs": [
        {
          "indexed": false,
          "internalType": "uint256",
          "name": "id",
          "type": "uint256"
        },
        {
          "indexed": false,
          "internalType": "string",
          "name": "name",
          "type": "string"
        }
      ],
      "name": "NewPatron",
      "type": "event"
    },
    {
      "anonymous": false,
      "inputs": [
        {
          "indexed": false,
          "internalType": "uint256",
          "name": "id",
          "type": "uint256"
        },
        {
          "indexed": false,
          "internalType": "string",
          "name": "cname",
          "type": "string"
        }
      ],
      "name": "NewSubscription",
      "type": "event"
    },
    {
      "constant": true,
      "inputs": [
        {
          "internalType": "uint256",
          "name": "",
          "type": "uint256"
        }
      ],
      "name": "creators",
      "outputs": [
        {
          "internalType": "string",
          "name": "name",
          "type": "string"
        },
        {
          "internalType": "address",
          "name": "owner",
          "type": "address"
        }
      ],
      "payable": false,
      "stateMutability": "view",
      "type": "function"
    },
    {
      "constant": true,
      "inputs": [
        {
          "internalType": "uint256",
          "name": "",
          "type": "uint256"
        }
      ],
      "name": "patrons",
      "outputs": [
        {
          "internalType": "string",
          "name": "name",
          "type": "string"
        },
        {
          "internalType": "address",
          "name": "owner",
          "type": "address"
        }
      ],
      "payable": false,
      "stateMutability": "view",
      "type": "function"
    },
    {
      "constant": false,
      "inputs": [
        {
          "internalType": "string",
          "name": "_name",
          "type": "string"
        }
      ],
      "name": "newUser",
      "outputs": [],
      "payable": false,
      "stateMutability": "nonpayable",
      "type": "function"
    },
    {
      "constant": false,
      "inputs": [
        {
          "internalType": "string",
          "name": "_name",
          "type": "string"
        }
      ],
      "name": "newCreator",
      "outputs": [],
      "payable": false,
      "stateMutability": "nonpayable",
      "type": "function"
    },
    {
      "constant": false,
      "inputs": [
        {
          "internalType": "uint256",
          "name": "_id",
          "type": "uint256"
        }
      ],
      "name": "newSubscription",
      "outputs": [],
      "payable": false,
      "stateMutability": "nonpayable",
      "type": "function"
    },
    {
      "constant": true,
      "inputs": [],
      "name": "getSubscriptionCount",
      "outputs": [
        {
          "internalType": "uint256",
          "name": "",
          "type": "uint256"
        }
      ],
      "payable": false,
      "stateMutability": "view",
      "type": "function"
    },
    {
      "constant": true,
      "inputs": [],
      "name": "getSubscriberCount",
      "outputs": [
        {
          "internalType": "uint256",
          "name": "",
          "type": "uint256"
        }
      ],
      "payable": false,
      "stateMutability": "view",
      "type": "function"
    },
    {
      "constant": true,
      "inputs": [
        {
          "internalType": "uint256",
          "name": "_cid",
          "type": "uint256"
        }
      ],
      "name": "getContent",
      "outputs": [
        {
          "internalType": "string",
          "name": "",
          "type": "string"
        }
      ],
      "payable": false,
      "stateMutability": "view",
      "type": "function"
    },
    {
      "constant": false,
      "inputs": [
        {
          "internalType": "string",
          "name": "_ipfsHash",
          "type": "string"
        }
      ],
      "name": "postContent",
      "outputs": [],
      "payable": false,
      "stateMutability": "nonpayable",
      "type": "function"
    },
    {
      "constant": true,
      "inputs": [],
      "name": "getBalance",
      "outputs": [
        {
          "internalType": "uint256",
          "name": "",
          "type": "uint256"
        }
      ],
      "payable": false,
      "stateMutability": "view",
      "type": "function"
    }
  ],
  "bytecode": "0x608060405234801561001057600080fd5b50611a45806100206000396000f3fe608060405234801561001057600080fd5b506004361061009e5760003560e01c8063664199701161006657806366419970146102fc5780638aee4f641461031a578063c23d5675146103d5578063cd53d08e14610403578063d28dfb22146104dd5761009e565b80630b7ad54c146100a357806312065fe01461014a57806317e703ab146101685780631eed1192146101865780635d12cc0714610241575b600080fd5b6100cf600480360360208110156100b957600080fd5b81019080803590602001909291905050506105b7565b6040518080602001828103825283818151815260200191508051906020019080838360005b8381101561010f5780820151818401526020810190506100f4565b50505050905090810190601f16801561013c5780820380516001836020036101000a031916815260200191505b509250505060405180910390f35b6101526108d6565b6040518082815260200191505060405180910390f35b6101706108de565b6040518082815260200191505060405180910390f35b61023f6004803603602081101561019c57600080fd5b81019080803590602001906401000000008111156101b957600080fd5b8201836020820111156101cb57600080fd5b803590602001918460018302840111640100000000831117156101ed57600080fd5b91908080601f016020809104026020016040519081016040528093929190818152602001838380828437600081840152601f19601f8201169050808301925050505050505091929192905050506109f6565b005b6102fa6004803603602081101561025757600080fd5b810190808035906020019064010000000081111561027457600080fd5b82018360208201111561028657600080fd5b803590602001918460018302840111640100000000831117156102a857600080fd5b91908080601f016020809104026020016040519081016040528093929190818152602001838380828437600081840152601f19601f820116905080830192505050505050509192919290505050610c85565b005b610304610f93565b6040518082815260200191505060405180910390f35b6103d36004803603602081101561033057600080fd5b810190808035906020019064010000000081111561034d57600080fd5b82018360208201111561035f57600080fd5b8035906020019184600183028401116401000000008311171561038157600080fd5b91908080601f016020809104026020016040519081016040528093929190818152602001838380828437600081840152601f19601f8201169050808301925050505050505091929192905050506110aa565b005b610401600480360360208110156103eb57600080fd5b810190808035906020019092919050505061122a565b005b61042f6004803603602081101561041957600080fd5b810190808035906020019092919050505061161c565b60405180806020018373ffffffffffffffffffffffffffffffffffffffff1673ffffffffffffffffffffffffffffffffffffffff168152602001828103825284818151815260200191508051906020019080838360005b838110156104a1578082015181840152602081019050610486565b50505050905090810190601f1680156104ce5780820380516001836020036101000a031916815260200191505b50935050505060405180910390f35b610509600480360360208110156104f357600080fd5b8101908080359060200190929190505050611705565b60405180806020018373ffffffffffffffffffffffffffffffffffffffff1673ffffffffffffffffffffffffffffffffffffffff168152602001828103825284818151815260200191508051906020019080838360005b8381101561057b578082015181840152602081019050610560565b50505050905090810190601f1680156105a85780820380516001836020036101000a031916815260200191505b50935050505060405180910390f35b606060008060003373ffffffffffffffffffffffffffffffffffffffff1673ffffffffffffffffffffffffffffffffffffffff16815260200190815260200160002054141561066e576040517f08c379a00000000000000000000000000000000000000000000000000000000081526004018080602001828103825260168152602001807f506c65617365207265676973746572206669727374210000000000000000000081525060200191505060405180910390fd5b60008060003373ffffffffffffffffffffffffffffffffffffffff1673ffffffffffffffffffffffffffffffffffffffff16815260200190815260200160002054905060006106bb610f93565b11610711576040517f08c379a00000000000000000000000000000000000000000000000000000000081526004018080602001828103825260278152602001806119916027913960400191505060405180910390fd5b6060600760008581526020019081526020016000208054600181600116156101000203166002900480601f0160208091040260200160405190810160405280929190818152602001828054600181600116156101000203166002900480156107ba5780601f1061078f576101008083540402835291602001916107ba565b820191906000526020600020905b81548152906001019060200180831161079d57829003601f168201915b50505050509050600081511161081b576040517f08c379a00000000000000000000000000000000000000000000000000000000081526004018080602001828103825260338152602001806119de6033913960400191505060405180910390fd5b6060600760008481526020019081526020016000208054600181600116156101000203166002900480601f0160208091040260200160405190810160405280929190818152602001828054600181600116156101000203166002900480156108c45780601f10610899576101008083540402835291602001916108c4565b820191906000526020600020905b8154815290600101906020018083116108a757829003601f168201915b50505050509050809350505050919050565b600047905090565b600080600360003373ffffffffffffffffffffffffffffffffffffffff1673ffffffffffffffffffffffffffffffffffffffff168152602001908152602001600020541415610995576040517f08c379a00000000000000000000000000000000000000000000000000000000081526004018080602001828103825260168152602001807f506c65617365207265676973746572206669727374210000000000000000000081525060200191505060405180910390fd5b6000600360003373ffffffffffffffffffffffffffffffffffffffff1673ffffffffffffffffffffffffffffffffffffffff168152602001908152602001600020549050600560008281526020019081526020016000208054905091505090565b60008060003373ffffffffffffffffffffffffffffffffffffffff1673ffffffffffffffffffffffffffffffffffffffff1681526020019081526020016000205414610aaa576040517f08c379a000000000000000000000000000000000000000000000000000000000815260040180806020018281038252601b8152602001807f4164647265737320616c7265616479207265676973746572656421000000000081525060200191505060405180910390fd5b60006001600260405180604001604052808581526020013373ffffffffffffffffffffffffffffffffffffffff16815250908060018154018082558091505090600182039060005260206000209060020201600090919290919091506000820151816000019080519060200190610b229291906117ee565b5060208201518160010160006101000a81548173ffffffffffffffffffffffffffffffffffffffff021916908373ffffffffffffffffffffffffffffffffffffffff1602179055505050039050606080600160008481526020019081526020016000209080519060200190610b9892919061186e565b50816000803373ffffffffffffffffffffffffffffffffffffffff1673ffffffffffffffffffffffffffffffffffffffff168152602001908152602001600020819055507f41ac332d1439d630a7510a6531b0e0da068f6f69f1cda339609c71b7970190ca82846040518083815260200180602001828103825283818151815260200191508051906020019080838360005b83811015610c45578082015181840152602081019050610c2a565b50505050905090810190601f168015610c725780820380516001836020036101000a031916815260200191505b50935050505060405180910390a1505050565b6000600360003373ffffffffffffffffffffffffffffffffffffffff1673ffffffffffffffffffffffffffffffffffffffff1681526020019081526020016000205414610d3a576040517f08c379a000000000000000000000000000000000000000000000000000000000815260040180806020018281038252601b8152602001807f4164647265737320616c7265616479207265676973746572656421000000000081525060200191505060405180910390fd5b60006001600660405180604001604052808581526020013373ffffffffffffffffffffffffffffffffffffffff16815250908060018154018082558091505090600182039060005260206000209060020201600090919290919091506000820151816000019080519060200190610db29291906117ee565b5060208201518160010160006101000a81548173ffffffffffffffffffffffffffffffffffffffff021916908373ffffffffffffffffffffffffffffffffffffffff1602179055505050039050606080600560008481526020019081526020016000209080519060200190610e2892919061186e565b5081600360003373ffffffffffffffffffffffffffffffffffffffff1673ffffffffffffffffffffffffffffffffffffffff16815260200190815260200160002081905550336004600084815260200190815260200160002060006101000a81548173ffffffffffffffffffffffffffffffffffffffff021916908373ffffffffffffffffffffffffffffffffffffffff160217905550606080600760008581526020019081526020016000209080519060200190610ee89291906118bb565b507f14df3b3b1313955d59bb0043f8fe5fcad2effc3a8431a25cae20abcc1beb46c383856040518083815260200180602001828103825283818151815260200191508051906020019080838360005b83811015610f52578082015181840152602081019050610f37565b50505050905090810190601f168015610f7f5780820380516001836020036101000a031916815260200191505b50935050505060405180910390a150505050565b600080600360003373ffffffffffffffffffffffffffffffffffffffff1673ffffffffffffffffffffffffffffffffffffffff16815260200190815260200160002054141561104a576040517f08c379a00000000000000000000000000000000000000000000000000000000081526004018080602001828103825260168152602001807f506c65617365207265676973746572206669727374210000000000000000000081525060200191505060405180910390fd5b60008060003373ffffffffffffffffffffffffffffffffffffffff1673ffffffffffffffffffffffffffffffffffffffff168152602001908152602001600020549050600160008281526020019081526020016000208054905091505090565b6000600360003373ffffffffffffffffffffffffffffffffffffffff1673ffffffffffffffffffffffffffffffffffffffff168152602001908152602001600020541415611160576040517f08c379a00000000000000000000000000000000000000000000000000000000081526004018080602001828103825260168152602001807f506c65617365207265676973746572206669727374210000000000000000000081525060200191505060405180910390fd5b6000600360003373ffffffffffffffffffffffffffffffffffffffff1673ffffffffffffffffffffffffffffffffffffffff16815260200190815260200160002054905060008251116111fe576040517f08c379a00000000000000000000000000000000000000000000000000000000081526004018080602001828103825260268152602001806119b86026913960400191505060405180910390fd5b816007600083815260200190815260200160002090805190602001906112259291906118bb565b505050565b60008060003373ffffffffffffffffffffffffffffffffffffffff1673ffffffffffffffffffffffffffffffffffffffff16815260200190815260200160002054905061127561193b565b6002828154811061128257fe5b9060005260206000209060020201604051806040016040529081600082018054600181600116156101000203166002900480601f0160208091040260200160405190810160405280929190818152602001828054600181600116156101000203166002900480156113345780601f1061130957610100808354040283529160200191611334565b820191906000526020600020905b81548152906001019060200180831161131757829003601f168201915b505050505081526020016001820160009054906101000a900473ffffffffffffffffffffffffffffffffffffffff1673ffffffffffffffffffffffffffffffffffffffff1673ffffffffffffffffffffffffffffffffffffffff168152505090506000600684815481106113a457fe5b90600052602060002090600202016000018054600181600116156101000203166002900490501161143d576040517f08c379a00000000000000000000000000000000000000000000000000000000081526004018080602001828103825260148152602001807f4e6f7420612076616c69642063726561746f722100000000000000000000000081525060200191505060405180910390fd5b60016000838152602001908152602001600020839080600181540180825580915050906001820390600052602060002001600090919290919091505550600560008481526020019081526020016000208290806001815401808255809150509060018203906000526020600020016000909192909190915055506060600684815481106114c657fe5b90600052602060002090600202016000018054600181600116156101000203166002900480601f01602080910402602001604051908101604052809291908181526020018280546001816001161561010002031660029004801561156b5780601f106115405761010080835404028352916020019161156b565b820191906000526020600020905b81548152906001019060200180831161154e57829003601f168201915b505050505090507f7bb818917469baa6c4b3aa12521de3cef574592784fe62c589d6fbf1322e496484826040518083815260200180602001828103825283818151815260200191508051906020019080838360005b838110156115db5780820151818401526020810190506115c0565b50505050905090810190601f1680156116085780820380516001836020036101000a031916815260200191505b50935050505060405180910390a150505050565b6006818154811061162957fe5b9060005260206000209060020201600091509050806000018054600181600116156101000203166002900480601f0160208091040260200160405190810160405280929190818152602001828054600181600116156101000203166002900480156116d55780601f106116aa576101008083540402835291602001916116d5565b820191906000526020600020905b8154815290600101906020018083116116b857829003601f168201915b5050505050908060010160009054906101000a900473ffffffffffffffffffffffffffffffffffffffff16905082565b6002818154811061171257fe5b9060005260206000209060020201600091509050806000018054600181600116156101000203166002900480601f0160208091040260200160405190810160405280929190818152602001828054600181600116156101000203166002900480156117be5780601f10611793576101008083540402835291602001916117be565b820191906000526020600020905b8154815290600101906020018083116117a157829003601f168201915b5050505050908060010160009054906101000a900473ffffffffffffffffffffffffffffffffffffffff16905082565b828054600181600116156101000203166002900490600052602060002090601f016020900481019282601f1061182f57805160ff191683800117855561185d565b8280016001018555821561185d579182015b8281111561185c578251825591602001919060010190611841565b5b50905061186a919061196b565b5090565b8280548282559060005260206000209081019282156118aa579160200282015b828111156118a957825182559160200191906001019061188e565b5b5090506118b7919061196b565b5090565b828054600181600116156101000203166002900490600052602060002090601f016020900481019282601f106118fc57805160ff191683800117855561192a565b8280016001018555821561192a579182015b8281111561192957825182559160200191906001019061190e565b5b509050611937919061196b565b5090565b604051806040016040528060608152602001600073ffffffffffffffffffffffffffffffffffffffff1681525090565b61198d91905b80821115611989576000816000905550600101611971565b5090565b9056fe506c656173652073756273637269626520746f20736f6d652063726561746f7220666972737421496e76616c696420696e70757420686173682e20506c6561736520636865636b2049504653214372656174657220686173206e6f7420706f7374656420616e7920636f6e74656e74207965742120537461792074756e656421a265627a7a72315820b4a771da94fe385240f1ac8aa5338b8b44f966af66ae41bdfec51beb2ce7f70264736f6c63430005100032",
  "source": "pragma solidity ^0.5.0;\r\n\r\ncontract Ethreon123 {\r\n\r\n    // The general structure for a user\r\n    struct People {\r\n        string name;\r\n        address owner;\r\n    }\r\n\r\n\r\n    // Mapping to get User ID given the public address\r\n    mapping (address => uint) getUserId;\r\n    // Mapping to get all the Creator ID's patron has subscribed to\r\n    mapping (uint => uint[]) getSubscriptions;\r\n    // Array of all patrons on the platform\r\n    People[] public patrons;\r\n\r\n\r\n    // Mapping to get Creator ID given the public address\r\n    mapping (address => uint) getCreatorId;\r\n    // Mapping to get Creator address given the ID\r\n    mapping (uint => address) getCreatorAddress;\r\n    // Mapping to get all the User ID's who have subscribed to this creator\r\n    mapping (uint => uint[]) getSubscribers;\r\n    // Array of all creators on the platform\r\n    People[] public creators;\r\n    // Mapping of content (Moibit Hash) associated with a creator\r\n    mapping(uint => string) content;\r\n\r\n\r\n    // Event flagging a new patron\r\n    event NewPatron(uint id, string name);\r\n    // Event flagging a new subscription by a patron\r\n    event NewSubscription(uint id, string cname);\r\n    // Event flagging a new creator\r\n    event NewCreator(uint id, string name);\r\n\r\n\r\n    // Function to create a new user from the name, public address and return the id\r\n    function newUser (string memory _name) public {\r\n        require(getUserId[msg.sender] == 0, \"Address already registered!\");\r\n        uint uid = patrons.push(People(_name, msg.sender)) - 1;\r\n        uint[] memory users;\r\n        getSubscriptions[uid] = users;\r\n        getUserId[msg.sender] = uid;\r\n        emit NewPatron(uid, _name);\r\n    }\r\n\r\n\r\n    // Function to create a new creator from the name, public address and return the id\r\n    function newCreator (string memory _name) public {\r\n        require(getCreatorId[msg.sender] == 0, \"Address already registered!\");\r\n        uint cid = creators.push(People(_name, msg.sender)) - 1;\r\n        uint[] memory users;\r\n        getSubscribers[cid] = users;\r\n        getCreatorId[msg.sender] = cid;\r\n        getCreatorAddress[cid] = msg.sender;\r\n        string memory cnt;\r\n        content[cid] = cnt;\r\n        emit NewCreator(cid, _name);\r\n    }\r\n\r\n\r\n    // Function for a patron to subscribe to a creator\r\n    function newSubscription (uint _id) public {\r\n        uint uid = getUserId[msg.sender];\r\n        People memory user = patrons[uid];\r\n        // Check if patron has balance\r\n        require(bytes(creators[_id].name).length > 0, \"Not a valid creator!\");              // Check validity of creator id\r\n        // Add end validity feature\r\n        getSubscriptions[uid].push(_id);\r\n        getSubscribers[_id].push(uid);\r\n        string memory cname = creators[_id].name;                           // See if anonymity will be better to pitch\r\n        emit NewSubscription(_id, cname);\r\n    }\r\n\r\n\r\n    // Function to get total number of creators a patron has subscribed to\r\n    function getSubscriptionCount() public view returns (uint) {\r\n        require(getCreatorId[msg.sender] != 0, \"Please register first!\");\r\n        uint uid = getUserId[msg.sender];\r\n        return getSubscriptions[uid].length;\r\n    }\r\n\r\n\r\n    // Function to get total number of patrons a creator has been subscribed by\r\n    function getSubscriberCount() public view returns (uint) {\r\n        require(getCreatorId[msg.sender] != 0, \"Please register first!\");\r\n        uint cid = getCreatorId[msg.sender];\r\n        return getSubscribers[cid].length;\r\n    }\r\n\r\n\r\n    // Function to return the Moibit hash of content, given a creator id\r\n    function getContent(uint _cid) public view returns (string memory) {\r\n        require(getUserId[msg.sender] != 0, \"Please register first!\");\r\n        uint uid = getUserId[msg.sender];\r\n        require(getSubscriptionCount() > 0, \"Please subscribe to some creator first!\");\r\n        bytes memory cnt = bytes(content[_cid]);\r\n        require(cnt.length > 0, \"Creater has not posted any content yet! Stay tuned!\");\r\n        string memory userContent = content[uid];\r\n        return userContent;\r\n        // Send Moibit hash encrypted with public key\r\n        // When multiple content, serialise string and send - future goal\r\n    }\r\n\r\n\r\n    // Function which adds a Moibit hash as content linked to creator ID\r\n    function postContent(string memory _ipfsHash) public {\r\n        require(getCreatorId[msg.sender] != 0, \"Please register first!\");\r\n        uint cid = getCreatorId[msg.sender];\r\n        require(bytes(_ipfsHash).length > 0, \"Invalid input hash. Please check IPFS!\");\r\n        content[cid] = _ipfsHash;\r\n    }\r\n\r\n\r\n    // Function to get balance of person\r\n    function getBalance() public view returns (uint) {\r\n        return address(this).balance;\r\n    }\r\n\r\n\r\n    // // Function to get user data\r\n    // function getUserData() public view returns (People) {\r\n    //     require(getUserId[msg.sender] != 0, \"User not found!\");\r\n    //     uint uid = getUserId[msg.sender];\r\n    //     People memory user = patrons[uid];\r\n    //     return user;\r\n    // }\r\n\r\n\r\n    // // Function to get creator data\r\n    // function getCreatorData() public view returns (People) {\r\n    //     require(getCreatorId[msg.sender] != 0, \"Creator not found!\");\r\n    //     uint cid = getCreatorId[msg.sender];\r\n    //     People memory user = creators[cid];\r\n    //     return user;\r\n    // }\r\n\r\n\r\n    // Function to tip the creator from the patron\r\n    // function tipCreator(uint _cid) public {\r\n    //     address creatorAdd = getCreatorAddress[_cid];\r\n    //     // Send money here!\r\n    // }\r\n}",
  "sourcePath": "C:\\Users\\Shubham Bhardwaj\\Desktop\\ChainRunner\\pet-shop\\contracts\\EthreonOld.sol",
  "compiler": {
    "name": "solc",
    "version": "0.5.16+commit.9c3226ce.Emscripten.clang"
  },
  "schemaVersion": "3.2.0",
  "updatedAt": "2020-06-23T19:17:53.622Z",
  "devdoc": {
    "methods": {}
  },
  "userdoc": {
    "methods": {}
  }
}