{
  "contractName": "Ethreon",
  "abi": [
    {
      "anonymous": false,
      "inputs": [],
      "name": "ContentAdded",
      "type": "event"
    },
    {
      "anonymous": false,
      "inputs": [],
      "name": "ImageAdded",
      "type": "event"
    },
    {
      "anonymous": false,
      "inputs": [],
      "name": "NewCreator",
      "type": "event"
    },
    {
      "anonymous": false,
      "inputs": [],
      "name": "NewPatron",
      "type": "event"
    },
    {
      "anonymous": false,
      "inputs": [
        {
          "indexed": false,
          "internalType": "address",
          "name": "_creator",
          "type": "address"
        }
      ],
      "name": "NewSubscription",
      "type": "event"
    },
    {
      "anonymous": false,
      "inputs": [],
      "name": "WelcomeBackCreator",
      "type": "event"
    },
    {
      "anonymous": false,
      "inputs": [],
      "name": "WelcomeBackPatron",
      "type": "event"
    },
    {
      "constant": true,
      "inputs": [],
      "name": "getSubscriptionCount",
      "outputs": [
        {
          "internalType": "uint256",
          "name": "",
          "type": "uint256"
        }
      ],
      "payable": false,
      "stateMutability": "view",
      "type": "function"
    },
    {
      "constant": true,
      "inputs": [],
      "name": "getSubscriptions",
      "outputs": [
        {
          "internalType": "address[]",
          "name": "",
          "type": "address[]"
        }
      ],
      "payable": false,
      "stateMutability": "view",
      "type": "function"
    },
    {
      "constant": false,
      "inputs": [],
      "name": "newCreatorSignup",
      "outputs": [],
      "payable": false,
      "stateMutability": "nonpayable",
      "type": "function"
    },
    {
      "constant": false,
      "inputs": [],
      "name": "newPatronSignup",
      "outputs": [],
      "payable": false,
      "stateMutability": "nonpayable",
      "type": "function"
    },
    {
      "constant": true,
      "inputs": [],
      "name": "numCreators",
      "outputs": [
        {
          "internalType": "uint256",
          "name": "",
          "type": "uint256"
        }
      ],
      "payable": false,
      "stateMutability": "view",
      "type": "function"
    },
    {
      "constant": true,
      "inputs": [],
      "name": "numPatrons",
      "outputs": [
        {
          "internalType": "uint256",
          "name": "",
          "type": "uint256"
        }
      ],
      "payable": false,
      "stateMutability": "view",
      "type": "function"
    },
    {
      "constant": false,
      "inputs": [
        {
          "internalType": "address",
          "name": "_creator",
          "type": "address"
        }
      ],
      "name": "newSubscription",
      "outputs": [],
      "payable": false,
      "stateMutability": "nonpayable",
      "type": "function"
    },
    {
      "constant": false,
      "inputs": [
        {
          "internalType": "string",
          "name": "_imageHash",
          "type": "string"
        }
      ],
      "name": "addCreatorImage",
      "outputs": [],
      "payable": false,
      "stateMutability": "nonpayable",
      "type": "function"
    },
    {
      "constant": false,
      "inputs": [
        {
          "internalType": "string",
          "name": "_contentHash",
          "type": "string"
        }
      ],
      "name": "addCreatorContent",
      "outputs": [],
      "payable": false,
      "stateMutability": "nonpayable",
      "type": "function"
    },
    {
      "constant": false,
      "inputs": [
        {
          "internalType": "address",
          "name": "_creator",
          "type": "address"
        }
      ],
      "name": "getContent",
      "outputs": [
        {
          "internalType": "string",
          "name": "",
          "type": "string"
        }
      ],
      "payable": false,
      "stateMutability": "nonpayable",
      "type": "function"
    }
  ],
  "bytecode": "0x608060405234801561001057600080fd5b506115ee806100206000396000f3fe608060405234801561001057600080fd5b506004361061009e5760003560e01c80636a9eac6e116100665780636a9eac6e1461012357806389b1349a1461012d578063b30ab34914610149578063eb049dc914610179578063f9df9851146101955761009e565b80632316dc5c146100a35780633b47a9ac146100c157806349f7e2ce146100df5780635df74143146100fb5780636641997014610105575b600080fd5b6100ab6101b3565b6040516100b8919061143c565b60405180910390f35b6100c96101b9565b6040516100d69190611358565b60405180910390f35b6100f960048036036100f491908101906110e0565b610310565b005b610103610466565b005b61010d610587565b60405161011a919061143c565b60405180910390f35b61012b61065d565b005b610147600480360361014291908101906110e0565b61077d565b005b610163600480360361015e91908101906110b7565b6108d3565b604051610170919061137a565b60405180910390f35b610193600480360361018e91908101906110b7565b610c6b565b005b61019d610f4e565b6040516101aa919061143c565b60405180910390f35b60005481565b6060600160003373ffffffffffffffffffffffffffffffffffffffff1673ffffffffffffffffffffffffffffffffffffffff16815260200190815260200160002060009054906101000a900460ff16610247576040517f08c379a000000000000000000000000000000000000000000000000000000000815260040161023e9061139c565b60405180910390fd5b600260003373ffffffffffffffffffffffffffffffffffffffff1673ffffffffffffffffffffffffffffffffffffffff16815260200190815260200160002080548060200260200160405190810160405280929190818152602001828054801561030657602002820191906000526020600020905b8160009054906101000a900473ffffffffffffffffffffffffffffffffffffffff1673ffffffffffffffffffffffffffffffffffffffff16815260200190600101908083116102bc575b5050505050905090565b600460003373ffffffffffffffffffffffffffffffffffffffff1673ffffffffffffffffffffffffffffffffffffffff16815260200190815260200160002060009054906101000a900460ff1661039c576040517f08c379a0000000000000000000000000000000000000000000000000000000008152600401610393906113fc565b60405180910390fd5b60008151116103e0576040517f08c379a00000000000000000000000000000000000000000000000000000000081526004016103d79061141c565b60405180910390fd5b80600560003373ffffffffffffffffffffffffffffffffffffffff1673ffffffffffffffffffffffffffffffffffffffff1681526020019081526020016000206001019080519060200190610436929190610fa9565b507f099cd507ce053de70a3a9ab29d62c2bcecd94b68c75716bbdbf6e8791ed02ef560405160405180910390a150565b600460003373ffffffffffffffffffffffffffffffffffffffff1673ffffffffffffffffffffffffffffffffffffffff16815260200190815260200160002060009054906101000a900460ff16156104e9577fad569f5f5522837c649404dd673537aa865e803920dd7b1802f2a522bb0f9ad760405160405180910390a1610585565b6001600460003373ffffffffffffffffffffffffffffffffffffffff1673ffffffffffffffffffffffffffffffffffffffff16815260200190815260200160002060006101000a81548160ff0219169083151502179055506105576001600354610f5490919063ffffffff16565b507f292813b9c444d1e805bb3e342ff6631d3ef0b93de23db3f4462dedfca7ef8d9260405160405180910390a15b565b6000600160003373ffffffffffffffffffffffffffffffffffffffff1673ffffffffffffffffffffffffffffffffffffffff16815260200190815260200160002060009054906101000a900460ff16610615576040517f08c379a000000000000000000000000000000000000000000000000000000000815260040161060c9061139c565b60405180910390fd5b600260003373ffffffffffffffffffffffffffffffffffffffff1673ffffffffffffffffffffffffffffffffffffffff16815260200190815260200160002080549050905090565b600160003373ffffffffffffffffffffffffffffffffffffffff1673ffffffffffffffffffffffffffffffffffffffff16815260200190815260200160002060009054906101000a900460ff16156106e0577f27fa8c9a0a68f2eac1e0efb2014ab68f2abe15c7c91c75bee02fa657c3ead0ce60405160405180910390a161077b565b60018060003373ffffffffffffffffffffffffffffffffffffffff1673ffffffffffffffffffffffffffffffffffffffff16815260200190815260200160002060006101000a81548160ff02191690831515021790555061074d6001600054610f5490919063ffffffff16565b507f4186843bf7674376f6b27b4cd58a19a7d3c5dd840a916a230a5621bbc65883be60405160405180910390a15b565b600460003373ffffffffffffffffffffffffffffffffffffffff1673ffffffffffffffffffffffffffffffffffffffff16815260200190815260200160002060009054906101000a900460ff16610809576040517f08c379a0000000000000000000000000000000000000000000000000000000008152600401610800906113fc565b60405180910390fd5b600081511161084d576040517f08c379a00000000000000000000000000000000000000000000000000000000081526004016108449061141c565b60405180910390fd5b80600560003373ffffffffffffffffffffffffffffffffffffffff1673ffffffffffffffffffffffffffffffffffffffff16815260200190815260200160002060000190805190602001906108a3929190610fa9565b507f943b07e3b59cf94b41d4a12b629be46611f5e27ff763cc03d58cdfdb3a739d4d60405160405180910390a150565b6060600160003373ffffffffffffffffffffffffffffffffffffffff1673ffffffffffffffffffffffffffffffffffffffff16815260200190815260200160002060009054906101000a900460ff16610961576040517f08c379a00000000000000000000000000000000000000000000000000000000081526004016109589061139c565b60405180910390fd5b600460008373ffffffffffffffffffffffffffffffffffffffff1673ffffffffffffffffffffffffffffffffffffffff16815260200190815260200160002060009054906101000a900460ff166109ed576040517f08c379a00000000000000000000000000000000000000000000000000000000081526004016109e4906113dc565b60405180910390fd5b6060600660008473ffffffffffffffffffffffffffffffffffffffff1673ffffffffffffffffffffffffffffffffffffffff168152602001908152602001600020805480602002602001604051908101604052809291908181526020016000905b82821015610ae057838290600052602060002090600202016040518060400160405290816000820160009054906101000a900473ffffffffffffffffffffffffffffffffffffffff1673ffffffffffffffffffffffffffffffffffffffff1673ffffffffffffffffffffffffffffffffffffffff16815260200160018201548152505081526020019060010190610a4e565b50505050905060008090505b8151811015610c51573373ffffffffffffffffffffffffffffffffffffffff16828281518110610b1857fe5b60200260200101516000015173ffffffffffffffffffffffffffffffffffffffff161415610c445742828281518110610b4d57fe5b6020026020010151602001511115610c4357600560008573ffffffffffffffffffffffffffffffffffffffff1673ffffffffffffffffffffffffffffffffffffffff1681526020019081526020016000206001018054600181600116156101000203166002900480601f016020809104026020016040519081016040528092919081815260200182805460018160011615610100020316600290048015610c355780601f10610c0a57610100808354040283529160200191610c35565b820191906000526020600020905b815481529060010190602001808311610c1857829003601f168201915b505050505092505050610c66565b5b8080600101915050610aec565b50604051806020016040528060008152509150505b919050565b600160003373ffffffffffffffffffffffffffffffffffffffff1673ffffffffffffffffffffffffffffffffffffffff16815260200190815260200160002060009054906101000a900460ff16610cf7576040517f08c379a0000000000000000000000000000000000000000000000000000000008152600401610cee9061139c565b60405180910390fd5b600460008273ffffffffffffffffffffffffffffffffffffffff1673ffffffffffffffffffffffffffffffffffffffff16815260200190815260200160002060009054906101000a900460ff16610d83576040517f08c379a0000000000000000000000000000000000000000000000000000000008152600401610d7a906113dc565b60405180910390fd5b600260003373ffffffffffffffffffffffffffffffffffffffff1673ffffffffffffffffffffffffffffffffffffffff1681526020019081526020016000208190806001815401808255809150509060018203906000526020600020016000909192909190916101000a81548173ffffffffffffffffffffffffffffffffffffffff021916908373ffffffffffffffffffffffffffffffffffffffff16021790555050600660008273ffffffffffffffffffffffffffffffffffffffff1673ffffffffffffffffffffffffffffffffffffffff16815260200190815260200160002060405180604001604052803373ffffffffffffffffffffffffffffffffffffffff16815260200162278d0042018152509080600181540180825580915050906001820390600052602060002090600202016000909192909190915060008201518160000160006101000a81548173ffffffffffffffffffffffffffffffffffffffff021916908373ffffffffffffffffffffffffffffffffffffffff160217905550602082015181600101555050507f5bc7d13291cd02f7d213fdf7fa71028394f2b5d578f6e5baf2eb2e05dbb23f4a81604051610f43919061133d565b60405180910390a150565b60035481565b600080828401905083811015610f9f576040517f08c379a0000000000000000000000000000000000000000000000000000000008152600401610f96906113bc565b60405180910390fd5b8091505092915050565b828054600181600116156101000203166002900490600052602060002090601f016020900481019282601f10610fea57805160ff1916838001178555611018565b82800160010185558215611018579182015b82811115611017578251825591602001919060010190610ffc565b5b5090506110259190611029565b5090565b61104b91905b8082111561104757600081600090555060010161102f565b5090565b90565b60008135905061105d81611594565b92915050565b600082601f83011261107457600080fd5b813561108761108282611484565b611457565b915080825260208301602083018583830111156110a357600080fd5b6110ae838284611541565b50505092915050565b6000602082840312156110c957600080fd5b60006110d78482850161104e565b91505092915050565b6000602082840312156110f257600080fd5b600082013567ffffffffffffffff81111561110c57600080fd5b61111884828501611063565b91505092915050565b600061112d8383611139565b60208301905092915050565b61114281611505565b82525050565b61115181611505565b82525050565b6000611162826114c0565b61116c81856114e3565b9350611177836114b0565b8060005b838110156111a857815161118f8882611121565b975061119a836114d6565b92505060018101905061117b565b5085935050505092915050565b60006111c0826114cb565b6111ca81856114f4565b93506111da818560208601611550565b6111e381611583565b840191505092915050565b60006111fb6014836114f4565b91507f55736572206e6f742072656769737465726564210000000000000000000000006000830152602082019050919050565b600061123b601b836114f4565b91507f536166654d6174683a206164646974696f6e206f766572666c6f7700000000006000830152602082019050919050565b600061127b6019836114f4565b91507f4e6f74206120726567697374657265642063726561746f7221000000000000006000830152602082019050919050565b60006112bb6017836114f4565b91507f43726561746f72206e6f742072656769737465726564210000000000000000006000830152602082019050919050565b60006112fb6017836114f4565b91507f4e6f7420612076616c696420696d6167652068617368210000000000000000006000830152602082019050919050565b61133781611537565b82525050565b60006020820190506113526000830184611148565b92915050565b600060208201905081810360008301526113728184611157565b905092915050565b6000602082019050818103600083015261139481846111b5565b905092915050565b600060208201905081810360008301526113b5816111ee565b9050919050565b600060208201905081810360008301526113d58161122e565b9050919050565b600060208201905081810360008301526113f58161126e565b9050919050565b60006020820190508181036000830152611415816112ae565b9050919050565b60006020820190508181036000830152611435816112ee565b9050919050565b6000602082019050611451600083018461132e565b92915050565b6000604051905081810181811067ffffffffffffffff8211171561147a57600080fd5b8060405250919050565b600067ffffffffffffffff82111561149b57600080fd5b601f19601f8301169050602081019050919050565b6000819050602082019050919050565b600081519050919050565b600081519050919050565b6000602082019050919050565b600082825260208201905092915050565b600082825260208201905092915050565b600061151082611517565b9050919050565b600073ffffffffffffffffffffffffffffffffffffffff82169050919050565b6000819050919050565b82818337600083830152505050565b60005b8381101561156e578082015181840152602081019050611553565b8381111561157d576000848401525b50505050565b6000601f19601f8301169050919050565b61159d81611505565b81146115a857600080fd5b5056fea365627a7a72315820ae2214f09d10959e6d84066995b5008ea138a09c7ec8b3d5b8df323ed152ab826c6578706572696d656e74616cf564736f6c63430005100040",
  "source": "pragma solidity ^0.5.0;\r\npragma experimental ABIEncoderV2;\r\n\r\nimport './SafeMath.sol';\r\nimport './EthreonBase.sol';\r\n\r\ncontract Ethreon is Patron, Creator {\r\n\r\n    // Structure to store subscribers and their end date\r\n    struct SubscribersData {\r\n        address patronAddress;\r\n        uint endSubscription;\r\n    }\r\n\r\n    // Mapping to get all the patrons subscribed to creator\r\n    mapping (address => SubscribersData[]) Subscribers;\r\n\r\n    // Event flagging new subscription to highlight creator\r\n    event NewSubscription(address _creator);\r\n\r\n    // Event flagging addition of creator image\r\n    event ImageAdded();\r\n    // Event flagging addition of content by creator\r\n    event ContentAdded();\r\n\r\n    // Function for patron to subscribe to new creator\r\n    function newSubscription(address _creator) public isPatronRegistered {\r\n        require(alreadyRegisteredCreator[_creator], \"Not a registered creator!\");\r\n        Subscriptions[msg.sender].push(_creator);\r\n        Subscribers[_creator].push(SubscribersData(msg.sender, now + 30 days));\r\n        emit NewSubscription(_creator);\r\n    }\r\n\r\n    // Function to add image for the creator\r\n    function addCreatorImage(string memory _imageHash) public isCreatorRegistered {\r\n        require(bytes(_imageHash).length > 0, \"Not a valid image hash!\");\r\n        CreatorData[msg.sender].imageHash = _imageHash;\r\n        emit ImageAdded();\r\n    }\r\n\r\n    // Function to add content by the creator\r\n    function addCreatorContent(string memory _contentHash) public isCreatorRegistered {\r\n        require(bytes(_contentHash).length > 0, \"Not a valid image hash!\");\r\n        CreatorData[msg.sender].contentHash = _contentHash;\r\n        emit ContentAdded();\r\n    }\r\n\r\n    // Function to return string of content hash to registered patron\r\n    function getContent(address _creator) public isPatronRegistered returns (string memory ) {\r\n        require(alreadyRegisteredCreator[_creator], \"Not a registered creator!\");\r\n        // require(Subscribers[_creator].isValue, \"No subscribers of this creator yet!\");\r\n        SubscribersData[] memory users = Subscribers[_creator];\r\n        for (uint i = 0; i < users.length; i++) {\r\n            if (users[i].patronAddress == msg.sender) {\r\n                if (users[i].endSubscription > now) {\r\n                    return CreatorData[_creator].contentHash;\r\n                }\r\n            }\r\n        }\r\n        return \"\";                // Should never reach here ideally\r\n    }\r\n}",
  "sourcePath": "C:\\Users\\Shubham Bhardwaj\\Desktop\\pet-shop\\contracts\\Ethreon.sol",
  "compiler": {
    "name": "solc",
    "version": "0.5.16+commit.9c3226ce.Emscripten.clang"
  },
  "schemaVersion": "3.2.0",
  "updatedAt": "2020-06-22T06:38:58.570Z",
  "networkType": "ethereum",
  "devdoc": {
    "methods": {}
  },
  "userdoc": {
    "methods": {}
  }
}