{
  "contractName": "Patron",
  "abi": [
    {
      "anonymous": false,
      "inputs": [
        {
          "indexed": false,
          "internalType": "uint256",
          "name": "id",
          "type": "uint256"
        },
        {
          "indexed": false,
          "internalType": "string",
          "name": "name",
          "type": "string"
        }
      ],
      "name": "NewPatron",
      "type": "event"
    },
    {
      "anonymous": false,
      "inputs": [
        {
          "indexed": false,
          "internalType": "uint256",
          "name": "id",
          "type": "uint256"
        },
        {
          "indexed": false,
          "internalType": "string",
          "name": "cname",
          "type": "string"
        }
      ],
      "name": "NewSubscription",
      "type": "event"
    },
    {
      "constant": true,
      "inputs": [
        {
          "internalType": "uint256",
          "name": "",
          "type": "uint256"
        }
      ],
      "name": "creators",
      "outputs": [
        {
          "internalType": "string",
          "name": "name",
          "type": "string"
        },
        {
          "internalType": "address",
          "name": "owner",
          "type": "address"
        }
      ],
      "payable": false,
      "stateMutability": "view",
      "type": "function"
    },
    {
      "constant": true,
      "inputs": [
        {
          "internalType": "uint256",
          "name": "",
          "type": "uint256"
        }
      ],
      "name": "patrons",
      "outputs": [
        {
          "internalType": "string",
          "name": "name",
          "type": "string"
        },
        {
          "internalType": "address",
          "name": "owner",
          "type": "address"
        }
      ],
      "payable": false,
      "stateMutability": "view",
      "type": "function"
    },
    {
      "constant": false,
      "inputs": [
        {
          "internalType": "string",
          "name": "_name",
          "type": "string"
        }
      ],
      "name": "newUser",
      "outputs": [],
      "payable": false,
      "stateMutability": "nonpayable",
      "type": "function"
    },
    {
      "constant": false,
      "inputs": [
        {
          "internalType": "uint256",
          "name": "_id",
          "type": "uint256"
        }
      ],
      "name": "newSubscription",
      "outputs": [],
      "payable": false,
      "stateMutability": "nonpayable",
      "type": "function"
    },
    {
      "constant": true,
      "inputs": [],
      "name": "getSubscriptionCount",
      "outputs": [
        {
          "internalType": "uint256",
          "name": "",
          "type": "uint256"
        }
      ],
      "payable": false,
      "stateMutability": "view",
      "type": "function"
    }
  ],
  "bytecode": "0x608060405234801561001057600080fd5b50610def806100206000396000f3fe608060405234801561001057600080fd5b50600436106100575760003560e01c80631eed11921461005c5780636641997014610117578063c23d567514610135578063cd53d08e14610163578063d28dfb221461023d575b600080fd5b6101156004803603602081101561007257600080fd5b810190808035906020019064010000000081111561008f57600080fd5b8201836020820111156100a157600080fd5b803590602001918460018302840111640100000000831117156100c357600080fd5b91908080601f016020809104026020016040519081016040528093929190818152602001838380828437600081840152601f19601f820116905080830192505050505050509192919290505050610317565b005b61011f6104c3565b6040518082815260200191505060405180910390f35b6101616004803603602081101561014b57600080fd5b81019080803590602001909291905050506105da565b005b61018f6004803603602081101561017957600080fd5b81019080803590602001909291905050506109cc565b60405180806020018373ffffffffffffffffffffffffffffffffffffffff1673ffffffffffffffffffffffffffffffffffffffff168152602001828103825284818151815260200191508051906020019080838360005b838110156102015780820151818401526020810190506101e6565b50505050905090810190601f16801561022e5780820380516001836020036101000a031916815260200191505b50935050505060405180910390f35b6102696004803603602081101561025357600080fd5b8101908080359060200190929190505050610ab5565b60405180806020018373ffffffffffffffffffffffffffffffffffffffff1673ffffffffffffffffffffffffffffffffffffffff168152602001828103825284818151815260200191508051906020019080838360005b838110156102db5780820151818401526020810190506102c0565b50505050905090810190601f1680156103085780820380516001836020036101000a031916815260200191505b50935050505060405180910390f35b60008060003373ffffffffffffffffffffffffffffffffffffffff1673ffffffffffffffffffffffffffffffffffffffff16815260200190815260200160002054146103cb576040517f08c379a000000000000000000000000000000000000000000000000000000000815260040180806020018281038252601b8152602001807f4164647265737320616c7265616479207265676973746572656421000000000081525060200191505060405180910390fd5b60006103d682610b9e565b9050806000803373ffffffffffffffffffffffffffffffffffffffff1673ffffffffffffffffffffffffffffffffffffffff168152602001908152602001600020819055507f41ac332d1439d630a7510a6531b0e0da068f6f69f1cda339609c71b7970190ca81836040518083815260200180602001828103825283818151815260200191508051906020019080838360005b83811015610484578082015181840152602081019050610469565b50505050905090810190601f1680156104b15780820380516001836020036101000a031916815260200191505b50935050505060405180910390a15050565b600080600360003373ffffffffffffffffffffffffffffffffffffffff1673ffffffffffffffffffffffffffffffffffffffff16815260200190815260200160002054141561057a576040517f08c379a00000000000000000000000000000000000000000000000000000000081526004018080602001828103825260168152602001807f506c65617365207265676973746572206669727374210000000000000000000081525060200191505060405180910390fd5b60008060003373ffffffffffffffffffffffffffffffffffffffff1673ffffffffffffffffffffffffffffffffffffffff168152602001908152602001600020549050600160008281526020019081526020016000208054905091505090565b60008060003373ffffffffffffffffffffffffffffffffffffffff1673ffffffffffffffffffffffffffffffffffffffff168152602001908152602001600020549050610625610c98565b6002828154811061063257fe5b9060005260206000209060020201604051806040016040529081600082018054600181600116156101000203166002900480601f0160208091040260200160405190810160405280929190818152602001828054600181600116156101000203166002900480156106e45780601f106106b9576101008083540402835291602001916106e4565b820191906000526020600020905b8154815290600101906020018083116106c757829003601f168201915b505050505081526020016001820160009054906101000a900473ffffffffffffffffffffffffffffffffffffffff1673ffffffffffffffffffffffffffffffffffffffff1673ffffffffffffffffffffffffffffffffffffffff1681525050905060006005848154811061075457fe5b9060005260206000209060020201600001805460018160011615610100020316600290049050116107ed576040517f08c379a00000000000000000000000000000000000000000000000000000000081526004018080602001828103825260148152602001807f4e6f7420612076616c69642063726561746f722100000000000000000000000081525060200191505060405180910390fd5b600160008381526020019081526020016000208390806001815401808255809150509060018203906000526020600020016000909192909190915055506004600084815260200190815260200160002082908060018154018082558091505090600182039060005260206000200160009091929091909150555060606005848154811061087657fe5b90600052602060002090600202016000018054600181600116156101000203166002900480601f01602080910402602001604051908101604052809291908181526020018280546001816001161561010002031660029004801561091b5780601f106108f05761010080835404028352916020019161091b565b820191906000526020600020905b8154815290600101906020018083116108fe57829003601f168201915b505050505090507f7bb818917469baa6c4b3aa12521de3cef574592784fe62c589d6fbf1322e496484826040518083815260200180602001828103825283818151815260200191508051906020019080838360005b8381101561098b578082015181840152602081019050610970565b50505050905090810190601f1680156109b85780820380516001836020036101000a031916815260200191505b50935050505060405180910390a150505050565b600581815481106109d957fe5b9060005260206000209060020201600091509050806000018054600181600116156101000203166002900480601f016020809104026020016040519081016040528092919081815260200182805460018160011615610100020316600290048015610a855780601f10610a5a57610100808354040283529160200191610a85565b820191906000526020600020905b815481529060010190602001808311610a6857829003601f168201915b5050505050908060010160009054906101000a900473ffffffffffffffffffffffffffffffffffffffff16905082565b60028181548110610ac257fe5b9060005260206000209060020201600091509050806000018054600181600116156101000203166002900480601f016020809104026020016040519081016040528092919081815260200182805460018160011615610100020316600290048015610b6e5780601f10610b4357610100808354040283529160200191610b6e565b820191906000526020600020905b815481529060010190602001808311610b5157829003601f168201915b5050505050908060010160009054906101000a900473ffffffffffffffffffffffffffffffffffffffff16905082565b6000806001600260405180604001604052808681526020013373ffffffffffffffffffffffffffffffffffffffff16815250908060018154018082558091505090600182039060005260206000209060020201600090919290919091506000820151816000019080519060200190610c17929190610cc8565b5060208201518160010160006101000a81548173ffffffffffffffffffffffffffffffffffffffff021916908373ffffffffffffffffffffffffffffffffffffffff1602179055505050039050606080600160008481526020019081526020016000209080519060200190610c8d929190610d48565b508192505050919050565b604051806040016040528060608152602001600073ffffffffffffffffffffffffffffffffffffffff1681525090565b828054600181600116156101000203166002900490600052602060002090601f016020900481019282601f10610d0957805160ff1916838001178555610d37565b82800160010185558215610d37579182015b82811115610d36578251825591602001919060010190610d1b565b5b509050610d449190610d95565b5090565b828054828255906000526020600020908101928215610d84579160200282015b82811115610d83578251825591602001919060010190610d68565b5b509050610d919190610d95565b5090565b610db791905b80821115610db3576000816000905550600101610d9b565b5090565b9056fea265627a7a72315820b4228bba6e28d370110c08576483aa310571b6077b30f2b2ec394cd33e52279464736f6c63430005100032",
  "source": "pragma solidity ^0.5.0;\r\n\r\ncontract PatreonDatabase {\r\n\r\n    struct People {\r\n        string name;\r\n        address owner;\r\n    }\r\n\r\n    mapping (address => uint) getUserId;\r\n    mapping (uint => uint[]) getSubscriptions;\r\n    People[] public patrons;\r\n\r\n    function _createNewPatron (string memory _name) internal returns (uint) {\r\n        uint id = patrons.push(People(_name, msg.sender)) - 1;\r\n        uint[] memory users;\r\n        getSubscriptions[id] = users;\r\n        return id;\r\n    }\r\n\r\n    mapping (address => uint) getCreatorId;\r\n    mapping (uint => uint[]) getSubscribers;\r\n    People[] public creators;\r\n\r\n    function _createNewCreator (string memory _name) internal returns (uint) {\r\n        uint id = creators.push(People(_name, msg.sender)) - 1;\r\n        uint[] memory users;\r\n        getSubscribers[id] = users;\r\n        return id;\r\n    }\r\n}\r\n\r\ncontract Patron is PatreonDatabase {\r\n\r\n    event NewPatron(uint id, string name);\r\n    event NewSubscription(uint id, string cname);\r\n\r\n    function newUser (string memory _name) public {\r\n        require(getUserId[msg.sender] == 0, \"Address already registered!\");\r\n        uint uid = _createNewPatron(_name);\r\n        getUserId[msg.sender] = uid;\r\n        emit NewPatron(uid, _name);\r\n    }\r\n\r\n    function newSubscription (uint _id) public {\r\n        uint uid = getUserId[msg.sender];\r\n        People memory user = patrons[uid];\r\n        // Check if patron has balance\r\n        require(bytes(creators[_id].name).length > 0, \"Not a valid creator!\");              // Check validity of creator id\r\n        // Add end validity feature\r\n        getSubscriptions[uid].push(_id);\r\n        getSubscribers[_id].push(uid);\r\n        string memory cname = creators[_id].name;                           // See if anonymity will be better to pitch\r\n        emit NewSubscription(_id, cname);\r\n    }\r\n\r\n    function getSubscriptionCount() public view returns (uint) {\r\n        require(getCreatorId[msg.sender] != 0, \"Please register first!\");\r\n        uint uid = getUserId[msg.sender];\r\n        return getSubscriptions[uid].length;\r\n    }\r\n}\r\n\r\ncontract Creator is PatreonDatabase {\r\n\r\n    event NewCreator(uint id, string name);\r\n\r\n    mapping(uint => string[]) content;\r\n\r\n    function newCreator (string memory _name) public {\r\n        require(getCreatorId[msg.sender] == 0, \"Address already registered!\");\r\n        uint cid = creators.push(People(_name, msg.sender)) - 1;\r\n        getUserId[msg.sender] = cid;\r\n        string[] memory cnt;\r\n        content[cid] = cnt;\r\n        emit NewCreator(cid, _name);\r\n    }\r\n\r\n    function getSubscriberCount() public view returns (uint) {\r\n        require(getCreatorId[msg.sender] != 0, \"Please register first!\");\r\n        uint cid = getCreatorId[msg.sender];\r\n        return getSubscribers[cid].length;\r\n    }\r\n}\r\n\r\ncontract Ethreon is Patron, Creator {\r\n\r\n    // function getContent(uint _cid) public view returns (string[] memory) {\r\n    //     require(getUserId[msg.sender] != 0, \"Please register first!\");\r\n    //     uint uid = getUserId[msg.sender];\r\n    //     require(getSubscriptionCount() > 0, \"Please subscribe to some creator first!\");\r\n    //     require(bytes(content[_cid][0]).length > 0, \"Creater has not posted any content yet! Stay tuned!\");\r\n    //     string[] memory userContent = content[uid];\r\n    //     //Serialise string and send\r\n    //     return userContent;\r\n\r\n    //     // Send IPFS hash encrypted with public key\r\n    // }\r\n\r\n    function postContent(string memory _ipfsHash) public {\r\n        require(getCreatorId[msg.sender] != 0, \"Please register first!\");\r\n        uint cid = getCreatorId[msg.sender];\r\n        require(bytes(_ipfsHash).length > 0, \"Invalid input hash. Please check IPFS!\");\r\n        content[cid].push(_ipfsHash);\r\n    }\r\n\r\n}",
  "sourcePath": "C:\\Users\\Shubham Bhardwaj\\Desktop\\pet-shop\\contracts\\Ethreon.sol",
  "compiler": {
    "name": "solc",
    "version": "0.5.16+commit.9c3226ce.Emscripten.clang"
  },
  "schemaVersion": "3.2.0",
  "updatedAt": "2020-06-17T20:41:40.385Z",
  "devdoc": {
    "methods": {}
  },
  "userdoc": {
    "methods": {}
  }
}