{
  "contractName": "Patron",
  "abi": [
    {
      "anonymous": false,
      "inputs": [],
      "name": "NewPatron",
      "type": "event"
    },
    {
      "anonymous": false,
      "inputs": [],
      "name": "WelcomeBackPatron",
      "type": "event"
    },
    {
      "constant": true,
      "inputs": [],
      "name": "numPatrons",
      "outputs": [
        {
          "internalType": "uint256",
          "name": "",
          "type": "uint256"
        }
      ],
      "payable": false,
      "stateMutability": "view",
      "type": "function"
    },
    {
      "constant": false,
      "inputs": [],
      "name": "newPatronSignup",
      "outputs": [],
      "payable": false,
      "stateMutability": "nonpayable",
      "type": "function"
    },
    {
      "constant": true,
      "inputs": [],
      "name": "getSubscriptionCount",
      "outputs": [
        {
          "internalType": "uint256",
          "name": "",
          "type": "uint256"
        }
      ],
      "payable": false,
      "stateMutability": "view",
      "type": "function"
    },
    {
      "constant": true,
      "inputs": [],
      "name": "getSubscriptions",
      "outputs": [
        {
          "internalType": "address[]",
          "name": "",
          "type": "address[]"
        }
      ],
      "payable": false,
      "stateMutability": "view",
      "type": "function"
    }
  ],
  "bytecode": "0x608060405234801561001057600080fd5b506106b7806100206000396000f3fe608060405234801561001057600080fd5b506004361061004c5760003560e01c80632316dc5c146100515780633b47a9ac1461006f578063664199701461008d5780636a9eac6e146100ab575b600080fd5b6100596100b5565b60405161006691906105d3565b60405180910390f35b6100776100bb565b6040516100849190610571565b60405180910390f35b610095610212565b6040516100a291906105d3565b60405180910390f35b6100b36102e8565b005b60005481565b6060600160003373ffffffffffffffffffffffffffffffffffffffff1673ffffffffffffffffffffffffffffffffffffffff16815260200190815260200160002060009054906101000a900460ff16610149576040517f08c379a000000000000000000000000000000000000000000000000000000000815260040161014090610593565b60405180910390fd5b600260003373ffffffffffffffffffffffffffffffffffffffff1673ffffffffffffffffffffffffffffffffffffffff16815260200190815260200160002080548060200260200160405190810160405280929190818152602001828054801561020857602002820191906000526020600020905b8160009054906101000a900473ffffffffffffffffffffffffffffffffffffffff1673ffffffffffffffffffffffffffffffffffffffff16815260200190600101908083116101be575b5050505050905090565b6000600160003373ffffffffffffffffffffffffffffffffffffffff1673ffffffffffffffffffffffffffffffffffffffff16815260200190815260200160002060009054906101000a900460ff166102a0576040517f08c379a000000000000000000000000000000000000000000000000000000000815260040161029790610593565b60405180910390fd5b600260003373ffffffffffffffffffffffffffffffffffffffff1673ffffffffffffffffffffffffffffffffffffffff16815260200190815260200160002080549050905090565b600160003373ffffffffffffffffffffffffffffffffffffffff1673ffffffffffffffffffffffffffffffffffffffff16815260200190815260200160002060009054906101000a900460ff161561036b577f27fa8c9a0a68f2eac1e0efb2014ab68f2abe15c7c91c75bee02fa657c3ead0ce60405160405180910390a1610406565b60018060003373ffffffffffffffffffffffffffffffffffffffff1673ffffffffffffffffffffffffffffffffffffffff16815260200190815260200160002060006101000a81548160ff0219169083151502179055506103d8600160005461040890919063ffffffff16565b507f4186843bf7674376f6b27b4cd58a19a7d3c5dd840a916a230a5621bbc65883be60405160405180910390a15b565b600080828401905083811015610453576040517f08c379a000000000000000000000000000000000000000000000000000000000815260040161044a906105b3565b60405180910390fd5b8091505092915050565b60006104698383610475565b60208301905092915050565b61047e81610638565b82525050565b600061048f826105fe565b6104998185610616565b93506104a4836105ee565b8060005b838110156104d55781516104bc888261045d565b97506104c783610609565b9250506001810190506104a8565b5085935050505092915050565b60006104ef601483610627565b91507f55736572206e6f742072656769737465726564210000000000000000000000006000830152602082019050919050565b600061052f601b83610627565b91507f536166654d6174683a206164646974696f6e206f766572666c6f7700000000006000830152602082019050919050565b61056b8161066a565b82525050565b6000602082019050818103600083015261058b8184610484565b905092915050565b600060208201905081810360008301526105ac816104e2565b9050919050565b600060208201905081810360008301526105cc81610522565b9050919050565b60006020820190506105e86000830184610562565b92915050565b6000819050602082019050919050565b600081519050919050565b6000602082019050919050565b600082825260208201905092915050565b600082825260208201905092915050565b60006106438261064a565b9050919050565b600073ffffffffffffffffffffffffffffffffffffffff82169050919050565b600081905091905056fea365627a7a72315820277ce339713ee862fd987f221067c24697cf4bdb78cbf72fd2752b9be20fbb336c6578706572696d656e74616cf564736f6c63430005100040",
  "source": "pragma solidity ^0.5.0;\r\npragma experimental ABIEncoderV2;\r\n\r\nimport './SafeMath.sol';\r\n\r\ncontract Patron {\r\n\r\n    using SafeMath for uint;\r\n\r\n    // Total patrons on platform\r\n    uint public numPatrons;\r\n\r\n    // Mapping to keep track of new patrons\r\n    mapping (address => bool) alreadyRegisteredPatron;\r\n\r\n    // Mapping to get all the Creator ID's patron has subscribed to\r\n    mapping (address => address[]) Subscriptions;                                   // See implementation of add vs uint\r\n\r\n    // Event flagging a new patron\r\n    event NewPatron();\r\n    // Event for welcome back\r\n    event WelcomeBackPatron();\r\n\r\n    modifier isPatronRegistered () {\r\n        require(alreadyRegisteredPatron[msg.sender], \"User not registered!\");\r\n        _;\r\n    }\r\n\r\n    // Function to create a new patron from public address and return success\r\n    function newPatronSignup () public {\r\n        if (alreadyRegisteredPatron[msg.sender]) {\r\n            emit WelcomeBackPatron();\r\n        }\r\n        else {\r\n            alreadyRegisteredPatron[msg.sender] = true;\r\n            numPatrons.add(1);\r\n            emit NewPatron();\r\n        }\r\n    }\r\n\r\n    // Function to get total number of creators a patron has subscribed to\r\n    function getSubscriptionCount() public view isPatronRegistered returns (uint) {\r\n        return Subscriptions[msg.sender].length;\r\n    }\r\n\r\n    // Function to get all creators a patron has subscribed to\r\n    function getSubscriptions() public view isPatronRegistered returns (address[] memory) {\r\n        return Subscriptions[msg.sender];\r\n    }\r\n}\r\n\r\ncontract Creator {\r\n\r\n    using SafeMath for uint;\r\n\r\n    // Structure to store data of a creator\r\n    struct CreatorDatastore {\r\n        string imageHash;\r\n        string contentHash;\r\n    }\r\n\r\n    // Total creators on platform\r\n    uint public numCreators;\r\n\r\n    // Mapping to keep track of new creators\r\n    mapping (address => bool) alreadyRegisteredCreator;\r\n\r\n    // Mapping to get data of a creator\r\n    mapping (address => CreatorDatastore) CreatorData;\r\n\r\n    // Event flagging a new creator\r\n    event NewCreator();\r\n    // Event for welcome back\r\n    event WelcomeBackCreator();\r\n\r\n    modifier isCreatorRegistered () {\r\n        require(alreadyRegisteredCreator[msg.sender], \"Creator not registered!\");\r\n        _;\r\n    }\r\n\r\n    // Function to create a new creator from public address and return success\r\n    function newCreatorSignup () public {\r\n        if (alreadyRegisteredCreator[msg.sender]) {\r\n            emit WelcomeBackCreator();\r\n        }\r\n        else {\r\n            alreadyRegisteredCreator[msg.sender] = true;\r\n            numCreators.add(1);\r\n            emit NewCreator();\r\n        }\r\n    }\r\n}",
  "sourcePath": "C:\\Users\\Shubham Bhardwaj\\Desktop\\pet-shop\\contracts\\EthreonBase.sol",
  "compiler": {
    "name": "solc",
    "version": "0.5.16+commit.9c3226ce.Emscripten.clang"
  },
  "schemaVersion": "3.2.0",
  "updatedAt": "2020-06-22T06:38:54.477Z",
  "devdoc": {
    "methods": {}
  },
  "userdoc": {
    "methods": {}
  }
}