{
  "contractName": "wallet",
  "abi": [
    {
      "inputs": [],
      "payable": false,
      "stateMutability": "nonpayable",
      "type": "constructor"
    },
    {
      "anonymous": false,
      "inputs": [
        {
          "indexed": true,
          "internalType": "address",
          "name": "from_",
          "type": "address"
        },
        {
          "indexed": true,
          "internalType": "address",
          "name": "to_",
          "type": "address"
        },
        {
          "indexed": false,
          "internalType": "uint256",
          "name": "amount_",
          "type": "uint256"
        }
      ],
      "name": "TransferFailed",
      "type": "event"
    },
    {
      "anonymous": false,
      "inputs": [
        {
          "indexed": true,
          "internalType": "address",
          "name": "from_",
          "type": "address"
        },
        {
          "indexed": true,
          "internalType": "address",
          "name": "to_",
          "type": "address"
        },
        {
          "indexed": false,
          "internalType": "uint256",
          "name": "amount_",
          "type": "uint256"
        }
      ],
      "name": "TransferSuccessful",
      "type": "event"
    },
    {
      "constant": true,
      "inputs": [],
      "name": "ERC20Interface",
      "outputs": [
        {
          "internalType": "contract IERC20",
          "name": "",
          "type": "address"
        }
      ],
      "payable": false,
      "stateMutability": "view",
      "type": "function"
    },
    {
      "constant": true,
      "inputs": [
        {
          "internalType": "address",
          "name": "",
          "type": "address"
        }
      ],
      "name": "biconomyAddressLoggedIn",
      "outputs": [
        {
          "internalType": "bool",
          "name": "",
          "type": "bool"
        }
      ],
      "payable": false,
      "stateMutability": "view",
      "type": "function"
    },
    {
      "constant": true,
      "inputs": [
        {
          "internalType": "address",
          "name": "",
          "type": "address"
        }
      ],
      "name": "biconomyAddressMappings",
      "outputs": [
        {
          "internalType": "address",
          "name": "",
          "type": "address"
        }
      ],
      "payable": false,
      "stateMutability": "view",
      "type": "function"
    },
    {
      "constant": true,
      "inputs": [],
      "name": "owner",
      "outputs": [
        {
          "internalType": "address",
          "name": "",
          "type": "address"
        }
      ],
      "payable": false,
      "stateMutability": "view",
      "type": "function"
    },
    {
      "constant": true,
      "inputs": [
        {
          "internalType": "bytes32",
          "name": "",
          "type": "bytes32"
        }
      ],
      "name": "tokens",
      "outputs": [
        {
          "internalType": "address",
          "name": "",
          "type": "address"
        }
      ],
      "payable": false,
      "stateMutability": "view",
      "type": "function"
    },
    {
      "constant": true,
      "inputs": [
        {
          "internalType": "address",
          "name": "",
          "type": "address"
        },
        {
          "internalType": "uint256",
          "name": "",
          "type": "uint256"
        }
      ],
      "name": "transactionIndexesToSender",
      "outputs": [
        {
          "internalType": "uint256",
          "name": "",
          "type": "uint256"
        }
      ],
      "payable": false,
      "stateMutability": "view",
      "type": "function"
    },
    {
      "constant": true,
      "inputs": [
        {
          "internalType": "uint256",
          "name": "",
          "type": "uint256"
        }
      ],
      "name": "transactions",
      "outputs": [
        {
          "internalType": "address",
          "name": "contract_",
          "type": "address"
        },
        {
          "internalType": "address",
          "name": "to_",
          "type": "address"
        },
        {
          "internalType": "uint256",
          "name": "amount_",
          "type": "uint256"
        },
        {
          "internalType": "bool",
          "name": "failed_",
          "type": "bool"
        },
        {
          "internalType": "string",
          "name": "hash",
          "type": "string"
        }
      ],
      "payable": false,
      "stateMutability": "view",
      "type": "function"
    },
    {
      "constant": false,
      "inputs": [
        {
          "internalType": "address",
          "name": "userAddress",
          "type": "address"
        },
        {
          "internalType": "address",
          "name": "_biconomyAddress",
          "type": "address"
        }
      ],
      "name": "biconomyLogin",
      "outputs": [],
      "payable": false,
      "stateMutability": "nonpayable",
      "type": "function"
    },
    {
      "constant": true,
      "inputs": [
        {
          "internalType": "address",
          "name": "userAddress",
          "type": "address"
        }
      ],
      "name": "isLoggedInUserADdress",
      "outputs": [
        {
          "internalType": "bool",
          "name": "",
          "type": "bool"
        }
      ],
      "payable": false,
      "stateMutability": "view",
      "type": "function"
    },
    {
      "constant": true,
      "inputs": [
        {
          "internalType": "address",
          "name": "userAddress",
          "type": "address"
        }
      ],
      "name": "getBiconomyAddress",
      "outputs": [
        {
          "internalType": "address",
          "name": "",
          "type": "address"
        }
      ],
      "payable": false,
      "stateMutability": "view",
      "type": "function"
    },
    {
      "constant": false,
      "inputs": [
        {
          "internalType": "bytes32",
          "name": "symbol_",
          "type": "bytes32"
        },
        {
          "internalType": "address",
          "name": "address_",
          "type": "address"
        }
      ],
      "name": "addNewToken",
      "outputs": [
        {
          "internalType": "bool",
          "name": "",
          "type": "bool"
        }
      ],
      "payable": false,
      "stateMutability": "nonpayable",
      "type": "function"
    },
    {
      "constant": false,
      "inputs": [
        {
          "internalType": "bytes32",
          "name": "symbol_",
          "type": "bytes32"
        }
      ],
      "name": "removeToken",
      "outputs": [
        {
          "internalType": "bool",
          "name": "",
          "type": "bool"
        }
      ],
      "payable": false,
      "stateMutability": "nonpayable",
      "type": "function"
    },
    {
      "constant": false,
      "inputs": [
        {
          "internalType": "address",
          "name": "from_",
          "type": "address"
        },
        {
          "internalType": "bytes32",
          "name": "symbol_",
          "type": "bytes32"
        },
        {
          "internalType": "address",
          "name": "to_",
          "type": "address"
        },
        {
          "internalType": "uint256",
          "name": "amount_",
          "type": "uint256"
        }
      ],
      "name": "transferFromTokens",
      "outputs": [],
      "payable": false,
      "stateMutability": "nonpayable",
      "type": "function"
    },
    {
      "constant": false,
      "inputs": [
        {
          "internalType": "address",
          "name": "from",
          "type": "address"
        },
        {
          "internalType": "bytes32",
          "name": "symbol_",
          "type": "bytes32"
        },
        {
          "internalType": "address",
          "name": "to_",
          "type": "address"
        },
        {
          "internalType": "uint256",
          "name": "amount_",
          "type": "uint256"
        },
        {
          "internalType": "string",
          "name": "_hash",
          "type": "string"
        }
      ],
      "name": "addTransaction",
      "outputs": [],
      "payable": false,
      "stateMutability": "nonpayable",
      "type": "function"
    },
    {
      "constant": false,
      "inputs": [
        {
          "internalType": "bytes32",
          "name": "symbol_",
          "type": "bytes32"
        },
        {
          "internalType": "address",
          "name": "to_",
          "type": "address"
        },
        {
          "internalType": "uint256",
          "name": "amount_",
          "type": "uint256"
        }
      ],
      "name": "transferTokens",
      "outputs": [],
      "payable": false,
      "stateMutability": "nonpayable",
      "type": "function"
    },
    {
      "constant": true,
      "inputs": [
        {
          "internalType": "address",
          "name": "userAddress",
          "type": "address"
        }
      ],
      "name": "getTransactionsIdsByAddress",
      "outputs": [
        {
          "internalType": "uint256[]",
          "name": "",
          "type": "uint256[]"
        }
      ],
      "payable": false,
      "stateMutability": "view",
      "type": "function"
    },
    {
      "constant": true,
      "inputs": [
        {
          "internalType": "uint256",
          "name": "_id",
          "type": "uint256"
        }
      ],
      "name": "getTransactionDetailsById",
      "outputs": [
        {
          "internalType": "address",
          "name": "",
          "type": "address"
        },
        {
          "internalType": "address",
          "name": "",
          "type": "address"
        },
        {
          "internalType": "uint256",
          "name": "",
          "type": "uint256"
        },
        {
          "internalType": "bool",
          "name": "",
          "type": "bool"
        },
        {
          "internalType": "string",
          "name": "",
          "type": "string"
        }
      ],
      "payable": false,
      "stateMutability": "view",
      "type": "function"
    }
  ],
  "bytecode": "0x608060405234801561001057600080fd5b5033600660006101000a81548173ffffffffffffffffffffffffffffffffffffffff021916908373ffffffffffffffffffffffffffffffffffffffff160217905550611b2f806100616000396000f3fe608060405234801561001057600080fd5b506004361061010b5760003560e01c8063aa8b8ff2116100a2578063c479643711610071578063c479643714610708578063db8af0ab1461076a578063de5004e814610803578063e940f70014610887578063fc21b67b146109965761010b565b8063aa8b8ff21461054a578063b082443b146105a6578063bc655ecb1461060c578063c460149f146106905761010b565b80638da5cb5b116100de5780638da5cb5b14610254578063904194a31461029e5780639ace38c21461030c5780639f0e55fe1461042b5761010b565b80631bbc4b83146101105780631f9988c91461015a578063224e7462146101b2578063257b0e29146101f8575b600080fd5b6101186109fa565b604051808273ffffffffffffffffffffffffffffffffffffffff1673ffffffffffffffffffffffffffffffffffffffff16815260200191505060405180910390f35b6101b06004803603606081101561017057600080fd5b8101908080359060200190929190803573ffffffffffffffffffffffffffffffffffffffff16906020019092919080359060200190929190505050610a20565b005b6101de600480360360208110156101c857600080fd5b8101908080359060200190929190505050610bfe565b604051808215151515815260200191505060405180910390f35b61023a6004803603602081101561020e57600080fd5b81019080803573ffffffffffffffffffffffffffffffffffffffff169060200190929190505050610d06565b604051808215151515815260200191505060405180910390f35b61025c610d26565b604051808273ffffffffffffffffffffffffffffffffffffffff1673ffffffffffffffffffffffffffffffffffffffff16815260200191505060405180910390f35b6102ca600480360360208110156102b457600080fd5b8101908080359060200190929190505050610d4c565b604051808273ffffffffffffffffffffffffffffffffffffffff1673ffffffffffffffffffffffffffffffffffffffff16815260200191505060405180910390f35b6103386004803603602081101561032257600080fd5b8101908080359060200190929190505050610d7f565b604051808673ffffffffffffffffffffffffffffffffffffffff1673ffffffffffffffffffffffffffffffffffffffff1681526020018573ffffffffffffffffffffffffffffffffffffffff1673ffffffffffffffffffffffffffffffffffffffff1681526020018481526020018315151515815260200180602001828103825283818151815260200191508051906020019080838360005b838110156103ec5780820151818401526020810190506103d1565b50505050905090810190601f1680156104195780820380516001836020036101000a031916815260200191505b50965050505050505060405180910390f35b6104576004803603602081101561044157600080fd5b8101908080359060200190929190505050610ea7565b604051808673ffffffffffffffffffffffffffffffffffffffff1673ffffffffffffffffffffffffffffffffffffffff1681526020018573ffffffffffffffffffffffffffffffffffffffff1673ffffffffffffffffffffffffffffffffffffffff1681526020018481526020018315151515815260200180602001828103825283818151815260200191508051906020019080838360005b8381101561050b5780820151818401526020810190506104f0565b50505050905090810190601f1680156105385780820380516001836020036101000a031916815260200191505b50965050505050505060405180910390f35b61058c6004803603602081101561056057600080fd5b81019080803573ffffffffffffffffffffffffffffffffffffffff169060200190929190505050611045565b604051808215151515815260200191505060405180910390f35b6105f2600480360360408110156105bc57600080fd5b8101908080359060200190929190803573ffffffffffffffffffffffffffffffffffffffff16906020019092919050505061109b565b604051808215151515815260200191505060405180910390f35b61064e6004803603602081101561062257600080fd5b81019080803573ffffffffffffffffffffffffffffffffffffffff169060200190929190505050611153565b604051808273ffffffffffffffffffffffffffffffffffffffff1673ffffffffffffffffffffffffffffffffffffffff16815260200191505060405180910390f35b610706600480360360808110156106a657600080fd5b81019080803573ffffffffffffffffffffffffffffffffffffffff16906020019092919080359060200190929190803573ffffffffffffffffffffffffffffffffffffffff16906020019092919080359060200190929190505050611186565b005b6107546004803603604081101561071e57600080fd5b81019080803573ffffffffffffffffffffffffffffffffffffffff1690602001909291908035906020019092919050505061157d565b6040518082815260200191505060405180910390f35b6107ac6004803603602081101561078057600080fd5b81019080803573ffffffffffffffffffffffffffffffffffffffff1690602001909291905050506115ab565b6040518080602001828103825283818151815260200191508051906020019060200280838360005b838110156107ef5780820151818401526020810190506107d4565b505050509050019250505060405180910390f35b6108456004803603602081101561081957600080fd5b81019080803573ffffffffffffffffffffffffffffffffffffffff169060200190929190505050611641565b604051808273ffffffffffffffffffffffffffffffffffffffff1673ffffffffffffffffffffffffffffffffffffffff16815260200191505060405180910390f35b610994600480360360a081101561089d57600080fd5b81019080803573ffffffffffffffffffffffffffffffffffffffff16906020019092919080359060200190929190803573ffffffffffffffffffffffffffffffffffffffff169060200190929190803590602001909291908035906020019064010000000081111561090e57600080fd5b82018360208201111561092057600080fd5b8035906020019184600183028401116401000000008311171561094257600080fd5b91908080601f016020809104026020016040519081016040528093929190818152602001838380828437600081840152601f19601f8201169050808301925050505050505091929192905050506116aa565b005b6109f8600480360360408110156109ac57600080fd5b81019080803573ffffffffffffffffffffffffffffffffffffffff169060200190929190803573ffffffffffffffffffffffffffffffffffffffff169060200190929190505050611966565b005b600460009054906101000a900473ffffffffffffffffffffffffffffffffffffffff1681565b600073ffffffffffffffffffffffffffffffffffffffff166001600085815260200190815260200160002060009054906101000a900473ffffffffffffffffffffffffffffffffffffffff1673ffffffffffffffffffffffffffffffffffffffff161415610a8d57600080fd5b60008111610a9a57600080fd5b60006001600085815260200190815260200160002060009054906101000a900473ffffffffffffffffffffffffffffffffffffffff16905080600460006101000a81548173ffffffffffffffffffffffffffffffffffffffff021916908373ffffffffffffffffffffffffffffffffffffffff160217905550600460009054906101000a900473ffffffffffffffffffffffffffffffffffffffff1673ffffffffffffffffffffffffffffffffffffffff1663a9059cbb84846040518363ffffffff1660e01b8152600401808373ffffffffffffffffffffffffffffffffffffffff1673ffffffffffffffffffffffffffffffffffffffff16815260200182815260200192505050602060405180830381600087803b158015610bbc57600080fd5b505af1158015610bd0573d6000803e3d6000fd5b505050506040513d6020811015610be657600080fd5b81019080805190602001909291905050505050505050565b60003373ffffffffffffffffffffffffffffffffffffffff16600660009054906101000a900473ffffffffffffffffffffffffffffffffffffffff1673ffffffffffffffffffffffffffffffffffffffff1614610c5a57600080fd5b600073ffffffffffffffffffffffffffffffffffffffff166001600084815260200190815260200160002060009054906101000a900473ffffffffffffffffffffffffffffffffffffffff1673ffffffffffffffffffffffffffffffffffffffff161415610cc757600080fd5b6001600083815260200190815260200160002060006101000a81549073ffffffffffffffffffffffffffffffffffffffff021916905560019050919050565b60036020528060005260406000206000915054906101000a900460ff1681565b600660009054906101000a900473ffffffffffffffffffffffffffffffffffffffff1681565b60016020528060005260406000206000915054906101000a900473ffffffffffffffffffffffffffffffffffffffff1681565b60058181548110610d8c57fe5b90600052602060002090600502016000915090508060000160009054906101000a900473ffffffffffffffffffffffffffffffffffffffff16908060010160009054906101000a900473ffffffffffffffffffffffffffffffffffffffff16908060020154908060030160009054906101000a900460ff1690806004018054600181600116156101000203166002900480601f016020809104026020016040519081016040528092919081815260200182805460018160011615610100020316600290048015610e9d5780601f10610e7257610100808354040283529160200191610e9d565b820191906000526020600020905b815481529060010190602001808311610e8057829003601f168201915b5050505050905085565b600080600080606060058681548110610ebc57fe5b906000526020600020906005020160000160009054906101000a900473ffffffffffffffffffffffffffffffffffffffff1660058781548110610efb57fe5b906000526020600020906005020160010160009054906101000a900473ffffffffffffffffffffffffffffffffffffffff1660058881548110610f3a57fe5b90600052602060002090600502016002015460058981548110610f5957fe5b906000526020600020906005020160030160009054906101000a900460ff1660058a81548110610f8557fe5b9060005260206000209060050201600401808054600181600116156101000203166002900480601f01602080910402602001604051908101604052809291908181526020018280546001816001161561010002031660029004801561102b5780601f106110005761010080835404028352916020019161102b565b820191906000526020600020905b81548152906001019060200180831161100e57829003601f168201915b505050505090509450945094509450945091939590929450565b6000600360008373ffffffffffffffffffffffffffffffffffffffff1673ffffffffffffffffffffffffffffffffffffffff16815260200190815260200160002060009054906101000a900460ff169050919050565b60003373ffffffffffffffffffffffffffffffffffffffff16600660009054906101000a900473ffffffffffffffffffffffffffffffffffffffff1673ffffffffffffffffffffffffffffffffffffffff16146110f757600080fd5b816001600085815260200190815260200160002060006101000a81548173ffffffffffffffffffffffffffffffffffffffff021916908373ffffffffffffffffffffffffffffffffffffffff1602179055506001905092915050565b60026020528060005260406000206000915054906101000a900473ffffffffffffffffffffffffffffffffffffffff1681565b600073ffffffffffffffffffffffffffffffffffffffff166001600085815260200190815260200160002060009054906101000a900473ffffffffffffffffffffffffffffffffffffffff1673ffffffffffffffffffffffffffffffffffffffff1614156111f357600080fd5b6000811161120057600080fd5b60006001600085815260200190815260200160002060009054906101000a900473ffffffffffffffffffffffffffffffffffffffff16905080600460006101000a81548173ffffffffffffffffffffffffffffffffffffffff021916908373ffffffffffffffffffffffffffffffffffffffff160217905550600460009054906101000a900473ffffffffffffffffffffffffffffffffffffffff1673ffffffffffffffffffffffffffffffffffffffff1663dd62ed3e86306040518363ffffffff1660e01b8152600401808373ffffffffffffffffffffffffffffffffffffffff1673ffffffffffffffffffffffffffffffffffffffff1681526020018273ffffffffffffffffffffffffffffffffffffffff1673ffffffffffffffffffffffffffffffffffffffff1681526020019250505060206040518083038186803b15801561134c57600080fd5b505afa158015611360573d6000803e3d6000fd5b505050506040513d602081101561137657600080fd5b81019080805190602001909291905050508211156113f8578273ffffffffffffffffffffffffffffffffffffffff168573ffffffffffffffffffffffffffffffffffffffff167fbf182be802245e8ed88e4b8d3e4344c0863dd2a70334f089fd07265389306fcf846040518082815260200191505060405180910390a3600080fd5b600460009054906101000a900473ffffffffffffffffffffffffffffffffffffffff1673ffffffffffffffffffffffffffffffffffffffff166323b872dd8685856040518463ffffffff1660e01b8152600401808473ffffffffffffffffffffffffffffffffffffffff1673ffffffffffffffffffffffffffffffffffffffff1681526020018373ffffffffffffffffffffffffffffffffffffffff1673ffffffffffffffffffffffffffffffffffffffff1681526020018281526020019350505050602060405180830381600087803b1580156114d557600080fd5b505af11580156114e9573d6000803e3d6000fd5b505050506040513d60208110156114ff57600080fd5b8101908080519060200190929190505050508273ffffffffffffffffffffffffffffffffffffffff168573ffffffffffffffffffffffffffffffffffffffff167fd6d3eb25a413c05d8107fc49deb2789bef7f612582b2482804c0b0423b6638ee846040518082815260200191505060405180910390a35050505050565b6000602052816000526040600020818154811061159657fe5b90600052602060002001600091509150505481565b60606000808373ffffffffffffffffffffffffffffffffffffffff1673ffffffffffffffffffffffffffffffffffffffff16815260200190815260200160002080548060200260200160405190810160405280929190818152602001828054801561163557602002820191906000526020600020905b815481526020019060010190808311611621575b50505050509050919050565b6000600260008373ffffffffffffffffffffffffffffffffffffffff1673ffffffffffffffffffffffffffffffffffffffff16815260200190815260200160002060009054906101000a900473ffffffffffffffffffffffffffffffffffffffff169050919050565b3373ffffffffffffffffffffffffffffffffffffffff168573ffffffffffffffffffffffffffffffffffffffff16146116e257600080fd5b600073ffffffffffffffffffffffffffffffffffffffff166001600086815260200190815260200160002060009054906101000a900473ffffffffffffffffffffffffffffffffffffffff1673ffffffffffffffffffffffffffffffffffffffff16141561174f57600080fd5b6000821161175c57600080fd5b60006001600086815260200190815260200160002060009054906101000a900473ffffffffffffffffffffffffffffffffffffffff169050600060056040518060a001604052808473ffffffffffffffffffffffffffffffffffffffff1681526020018773ffffffffffffffffffffffffffffffffffffffff168152602001868152602001600015158152602001858152509080600181540180825580915050906001820390600052602060002090600502016000909192909190915060008201518160000160006101000a81548173ffffffffffffffffffffffffffffffffffffffff021916908373ffffffffffffffffffffffffffffffffffffffff16021790555060208201518160010160006101000a81548173ffffffffffffffffffffffffffffffffffffffff021916908373ffffffffffffffffffffffffffffffffffffffff1602179055506040820151816002015560608201518160030160006101000a81548160ff02191690831515021790555060808201518160040190805190602001906118ed929190611a55565b50505090506000803373ffffffffffffffffffffffffffffffffffffffff1673ffffffffffffffffffffffffffffffffffffffff16815260200190815260200160002060018203908060018154018082558091505090600182039060005260206000200160009091929091909150555050505050505050565b8161197081611045565b1561197a57600080fd5b81600260008573ffffffffffffffffffffffffffffffffffffffff1673ffffffffffffffffffffffffffffffffffffffff16815260200190815260200160002060006101000a81548173ffffffffffffffffffffffffffffffffffffffff021916908373ffffffffffffffffffffffffffffffffffffffff1602179055506001600360008573ffffffffffffffffffffffffffffffffffffffff1673ffffffffffffffffffffffffffffffffffffffff16815260200190815260200160002060006101000a81548160ff021916908315150217905550505050565b828054600181600116156101000203166002900490600052602060002090601f016020900481019282601f10611a9657805160ff1916838001178555611ac4565b82800160010185558215611ac4579182015b82811115611ac3578251825591602001919060010190611aa8565b5b509050611ad19190611ad5565b5090565b611af791905b80821115611af3576000816000905550600101611adb565b5090565b9056fea265627a7a72315820fbd410d4e03c2521161afe09f5a24fe95ea75e1ca79f51b5df0ca298ca64af8164736f6c63430005100032",
  "source": "pragma solidity ^0.5.0;\r\n\r\nimport \"./walletStorage.sol\";\r\n\r\ncontract wallet is walletStorage{\r\n    \r\n    constructor() public {\r\n        owner = msg.sender;\r\n    }\r\n    \r\n    modifier onlyOwner {\r\n        require(owner == msg.sender);\r\n        _;\r\n    }\r\n    \r\n    modifier isLoggedIn(address userAddress) {\r\n        require(!isLoggedInUserADdress(userAddress));\r\n        _;\r\n    }\r\n    \r\n    // Biconomy Login \r\n    function biconomyLogin(address userAddress, address _biconomyAddress) isLoggedIn(userAddress) external {\r\n        biconomyAddressMappings[userAddress] = _biconomyAddress;\r\n        biconomyAddressLoggedIn[userAddress] = true;\r\n    }\r\n    \r\n    function isLoggedInUserADdress(address userAddress) public view returns(bool) {\r\n        return biconomyAddressLoggedIn[userAddress];\r\n    } \r\n    \r\n    function getBiconomyAddress(address userAddress) public view returns(address) {\r\n        return biconomyAddressMappings[userAddress];\r\n    }     \r\n    \r\n    // Add new Token Support to wallet\r\n    function addNewToken(bytes32 symbol_, address address_) public onlyOwner returns (bool) {\r\n        tokens[symbol_] = address_;\r\n        return true;\r\n    }\r\n    \r\n    function removeToken(bytes32 symbol_) public onlyOwner returns (bool) {\r\n        require(tokens[symbol_] != address(0));\r\n        delete(tokens[symbol_]);\r\n        return true;\r\n    }\r\n    \r\n    function transferFromTokens(address from_, bytes32 symbol_, address to_, uint256 amount_) public {\r\n        // require(from_ == msg.sender);\r\n        require(tokens[symbol_] != address(0));\r\n        require(amount_ > 0);\r\n\r\n        address contract_ = tokens[symbol_];\r\n        ERC20Interface =  IERC20(contract_);\r\n        \r\n        if(amount_ > ERC20Interface.allowance(from_, address(this))) {\r\n            emit TransferFailed(from_, to_, amount_);\r\n            revert();\r\n        }\r\n\r\n        // uint256 transactionId = transactions.push(\r\n        //     Transfer({\r\n        //         contract_:  contract_,\r\n        //         to_: to_,\r\n        //         amount_: amount_,\r\n        //         failed_: true\r\n        //     })\r\n        // );\r\n\r\n        // transactionIndexesToSender[from_].push(transactionId - 1);\r\n\r\n        ERC20Interface.transferFrom(from_, to_, amount_);\r\n        // transactions[transactionId - 1].failed_ = false;\r\n        emit TransferSuccessful(from_, to_, amount_);\r\n    }\r\n    \r\n    function addTransaction(address from, bytes32 symbol_, address to_, uint256 amount_, string memory _hash) public {\r\n        require(from == msg.sender);\r\n        require(tokens[symbol_] != address(0));\r\n        require(amount_ > 0);\r\n\r\n        address contract_ = tokens[symbol_];\r\n        \r\n        uint256 transactionId = transactions.push(\r\n            Transfer({\r\n                contract_:  contract_,\r\n                to_: to_,\r\n                amount_: amount_,\r\n                failed_: false,\r\n                hash: _hash\r\n            })\r\n        );\r\n        transactionIndexesToSender[msg.sender].push(transactionId - 1);\r\n    }\r\n    \r\n    function transferTokens(bytes32 symbol_, address to_, uint256 amount_) public {\r\n        require(tokens[symbol_] != address(0));\r\n        require(amount_ > 0);\r\n\r\n        address contract_ = tokens[symbol_];\r\n        ERC20Interface =  IERC20(contract_);\r\n        \r\n        // if(amount_ > ERC20Interface.balanceOf(msg.sender)) {\r\n        //     revert();\r\n        // }\r\n\r\n        // uint256 transactionId = transactions.push(\r\n        //     Transfer({\r\n        //         contract_:  contract_,\r\n        //         to_: to_,\r\n        //         amount_: amount_,\r\n        //         failed_: true\r\n        //     })\r\n        // );\r\n\r\n        // transactionIndexesToSender[msg.sender].push(transactionId - 1);\r\n\r\n        ERC20Interface.transfer(to_, amount_);\r\n        // transactions[transactionId - 1].failed_ = false;\r\n    }\r\n    \r\n    function getTransactionsIdsByAddress(address userAddress) public view returns(uint256[] memory) {\r\n        return transactionIndexesToSender[userAddress];\r\n    }\r\n    \r\n    function getTransactionDetailsById(uint256 _id) public view returns(address, address, uint256, bool, string memory) {\r\n        return (\r\n            transactions[_id].contract_,\r\n            transactions[_id].to_,\r\n            transactions[_id].amount_,\r\n            transactions[_id].failed_,\r\n            transactions[_id].hash\r\n        );\r\n    }\r\n}",
  "sourcePath": "C:\\Users\\Shubham Bhardwaj\\Desktop\\pet-shop\\contracts\\wallet.sol",
  "compiler": {
    "name": "solc",
    "version": "0.5.16+commit.9c3226ce.Emscripten.clang"
  },
  "schemaVersion": "3.2.0",
  "updatedAt": "2020-06-19T10:24:51.491Z",
  "devdoc": {
    "methods": {}
  },
  "userdoc": {
    "methods": {}
  }
}